:020000040800F2
:10000000D00500209D0100080F230008C52000082E
:100010000D23000859070008B52F00080000000054
:10002000000000000000000000000000C5250008DE
:100030005B0700080000000011230008C725000826
:10004000B7010008B7010008B7010008B7010008B0
:10005000B7010008B7010008B7010008B7010008A0
:10006000B7010008B7010008B7010008B701000890
:10007000B7010008B7010008B7010008B701000880
:10008000B7010008B7010008B7010008B701000870
:10009000B7010008B7010008B7010008B701000860
:1000A000B7010008B7010008B7010008B701000850
:1000B00081260008B7010008B7010008B701000851
:1000C000B7010008B7010008B7010008B701000830
:1000D000B7010008B7010008B7010008B701000820
:1000E000B7010008B7010008B7010008B701000810
:1000F000B7010008B7010008B7010008B701000800
:10010000B7010008B7010008B7010008B7010008EF
:10011000B7010008B7010008B7010008B7010008DF
:10012000B7010008B7010008B7010008B7010008CF
:10013000B7010008B7010008B7010008B7010008BF
:10014000B7010008B7010008B7010008B7010008AF
:10015000B7010008B7010008B7010008B70100089F
:10016000B7010008B7010008B7010008B70100088F
:10017000B7010008B7010008B7010008000000003F
:10018000B7010008B7010008DFF80CD000F0D2FA80
:1001900000480047F9380008D0050020064880478D
:1001A00006480047FEE7FEE7FEE7FEE7FEE7FEE75C
:1001B000FEE7FEE7FEE7FEE73D26000889010008AE
:1001C0002DE9F05F0546002092469B46884606468C
:1001D000814640241BE0284641464746224600F01F
:1001E000FAF953465A46C01A914110D3114618469F
:1001F000224600F0E1F92D1A67EB01084F4622462E
:100200000120002100F0D8F917EB00094E41201E13
:10021000A4F10104DFDC484631462A46434600F09B
:1002200000B830BCBDE8C09FD2B201E000F8012B9D
:10023000491EFBD270470022F6E710B513460A4666
:1002400004461946FFF7F0FF204610BD2DE9FE4F8A
:10025000804681EA0300C00F0C46009021F0004167
:1002600023F00045B8EB0200A94105D240462146E3
:1002700090461C460B46024623F00040104347D0F0
:10028000270DC7F30A00C3F30A510290401A0190E8
:1002900040286BDAC3F3130040F4801B00989246A9
:1002A00020B10023D2EB030A63EB0B0B01985946F4
:1002B000C0F14002504600F07FF906460D46504618
:1002C0005946019A00F097F910EB080061410024AB
:1002D00087EA115284EAE7731A4340D0009A62B366
:1002E000019A012A4FEA075215DC001B61EB02015B
:1002F0004FF0004202EA0752CDE90042001C41F5EE
:10030000801132462B4600F097F903B000F045B853
:1003100040462146F9E7001B61EB0201001C41F554
:10032000801300185B412018A2F5001747EB03016A
:1003300040EAD570B6196D4111E06D084FEA3606F6
:1003400045EAC0754FEA0752001B61EB0201001C31
:1003500041F5801149084FEA3000001951413246F9
:100360002B4603B000F01CB800F057B900980122EA
:1003700040000023D0EB020263EBE07300982146BB
:100380004FEAE074B8EB000061EB0401E9E783F0A9
:1003900000435BE781F0004158E730BCBDE8C08F07
:1003A00030BCBDE8C04FFFF7DFBF2DE9FE4F81EA4B
:1003B000030404F0004421F0004100944FF0000BCE
:1003C00023F0004350EA01045ED052EA03045BD0FC
:1003D000C3F30A54C1F30A552C44A4F2F334019434
:1003E000A0FB0254C1F3130141F48011C3F31303C2
:1003F00043F4801301FB024400FB034E840A970A76
:1004000044EA815447EA8357A4FB076802958D0AA2
:1004100005FB07854FEA932C04FB0C542705029D2E
:100420004FEA065847EA1637B5EB08056EEB070C9E
:10043000870E920E47EA811742EA8312A7FB020158
:10044000B6EB0B0164EB00042B0D43EA0C335E1892
:1004500044EB1C50DA465146E7FB0201C5F3130496
:100460004FEA0B3343EA14534FEA0432019C43EA48
:100470000603A4F10C040294009CCDE900B400F042
:10048000DBF803B000F003B800200146F9E730BC08
:10049000BDE8C08F2DE9F04D81EA030404F0004B64
:1004A00021F0004514464FF0000A23F0004150EAC5
:1004B000050220D054EA01021DD0C5F30A570246B6
:1004C000C5F31303C1F31300C1F30A5640F48015BA
:1004D00043F48013A7EB0608101BD64608F2FD383C
:1004E00073EB050002D308F1010801E092185B41AB
:1004F000B8F1000F03DA00200146BDE8F08D0020BE
:100500004FF48011064684460EE0171B73EB050777
:1005100005D3121B63EB050306434CEA010C4908A3
:100520004FEA300092185B4150EA0107EDD152EAE0
:10053000030012D082EA040083EA0501084305D0D3
:10054000101BAB4106D20122002306E000224FF02F
:10055000004302E06FF0010253101AEB06004CEB6F
:10056000085110EB0A0041EB0B01BDE8F04D00F023
:1005700054B80EB540F2334102910021CDE900118B
:100580000A460B4600F058F803B000BD30B50B46E4
:10059000014600202022012409E021FA02F59D42B3
:1005A00005D303FA02F5491B04FA02F52844151E87
:1005B000A2F10102F1DC30BD202A04DB203A00FA6E
:1005C00002F1002070479140C2F1200320FA03F3AA
:1005D000194390407047202A04DB203A21FA02F0A8
:1005E0000021704721FA02F3D040C2F1200291406D
:1005F000084319467047202A06DBCB17203A41FAF8
:1006000002F043EAE07306E041FA02F3D040C2F19F
:100610002002914008431946704710B5141E73F12B
:10062000000408DA401C41F1000192185B411A43B2
:1006300001D120F0010010BD2DE9F04D92469B46FE
:1006400011B1B1FA81F202E0B0FA80F220329046A4
:10065000FFF7B2FF04460F4640EA0A0041EA0B01E9
:1006600053465A46084313D0114653EA010019D0A5
:10067000C8F140025046FFF7AEFF05460E46504611
:1006800059464246FFF798FF084305D0012004E091
:1006900020463946BDE8F08D0020054346EAE07665
:1006A0002C4337430A986305E40AA0EB08000022B4
:1006B000FD0A44EA47540A3002D500200146E9E722
:1006C000010510196941DDE9084500196941BDE8D6
:1006D000F04DA2E7C1F30A52C1F3130140F2FF3318
:1006E00041F480119A4202DA00200146704740F23C
:1006F00033439A42A2F2334202DC5242FFF76BBF0D
:10070000FFF75ABF30B5041E71F1000404DB4FF04F
:100710000044404264EB0101141E73F1000405DB48
:100720001C464FF00043524263EB0403994208BF5A
:10073000904230BD064C074D06E0E06840F00103F2
:1007400094E8070098471034AC42F6D3FFF720FD39
:10075000203A0008403A0008FEE770477047000062
:1007600070B5044600F0F8F80546601C02D0044855
:100770004068044400F0F0F8401BA042FAD370BD7A
:10078000300000202DE9F84FDFF898B100234FF03A
:10079000010C4FF0030A4FF00F090BF1040EB9E002
:1007A0000CFA03F4224070D04D68022D01D0122DB6
:1007B0000ED1DD0800EB8508D8F820505E07F70E53
:1007C00009FA07F6B5430E69BE402E43C8F820600B
:1007D00007685E0091F804800AFA06F508F003083D
:1007E000AF4308FA06F848EA0708C0F800804F68E7
:1007F000012F05D0022F03D0112F01D0122F13D1BA
:10080000D0F80880CF6828EA0508B74047EA08070B
:100810008760D0F804800F7928EA0408C7F300172E
:100820009F4047EA08074760D1F804806FEA08074D
:10083000BF0706D1C76AA743C8F3C0049C403C4326
:10084000C462C468AC438D68B5402543C5604C683C
:10085000E4005ED5344C256E45F001052566246E16
:1008600023F0030504F001040094304C2E19B46801
:100870009D072F0F09FA07F5AC43B0F1904F05D053
:100880002B4DA84204D101251CE042E0002519E0CF
:10089000284DA84201D1022514E0274DA84201D1DC
:1008A00003250FE0254DA84201D104250AE0244D7F
:1008B000A84201D1052505E0224DA84201D1062517
:1008C00000E00725BD402543B560DBF800405D46EC
:1008D0004E689443F60300D514432C60DEF80040C4
:1008E00075464E689443B60300D514432C600D4DF5
:1008F00008352C684E689443F60200D514432C60EA
:10090000084D0C352C684E689443B60200D514434C
:100910002C605B1C0A6832FA03F57FF441AF00F0EB
:1009200013B8000000040140001002400000014024
:100930000004004800080048000C0048001000486F
:10094000001400480018004818BCBDE8E08F0AB148
:10095000816170478162704701488068704700007C
:10096000300000200248816842681144816070476D
:1009700030000020094810B50168002441F480715E
:100980000160032000F072F8002000F009F808B1BF
:10099000012401E000F026F8204610BD00200240AE
:1009A00070B50E4E05460024706898B14FF47A7108
:1009B000B1FBF0F00A490968B1FBF0F000F0F2FD7C
:1009C00040B9102D06D200222946501E00F02EF804
:1009D000356000E00124204670BD0000300000209A
:1009E0003C000020094808B5016E41F00101016694
:1009F000016E01F001010091816D41F0805181652E
:100A0000806D00F08050009008BD00000010024092
:100A1000002809DB00F01F020121914040098000FD
:100A200000F1E020C0F8001170470000F0B40E4B58
:100A30001B680C46C3F30223C3F10705042D00D93C
:100A40000425191D072901D2002300E0DB1E012621
:100A500006FA05F1491E214099409E40761E164037
:100A60003143F0BC02F0B8BA0CED00E0064900F0EA
:100A7000070208684FF6FF03184040EA0220034AC5
:100A800010430860704700000CED00E00000FA051C
:100A90001649B0F5007F0868C0F3412009D002284C
:100AA00005D0086820F4C06040F480600860002031
:100AB00070470128FBD0086820F4C06040F4007043
:100AC00008600B483222006850430A4AB0FBF2F03B
:100AD000401C00E0401E4A69520501D50028F9D1AA
:100AE00048694005E3D503207047000000700040CE
:100AF0003C00002040420F000248006800F4C06043
:100B000070470000007000402DE9F84F04460027B0
:100B10000088E54D3E46010504F1200B1DD5606EB1
:100B200078B1B0F5800F11D0B0F5000F04D0B0F55A
:100B3000400F22D001270FE0E86840F48030E860E1
:100B40001BE00021201D01F0E5FB03E000215846D9
:100B500001F076FC070010D03E462088C00426D560
:100B6000A06EC0B1B0F1807F1AD0B0F1007F0DD07F
:100B7000B0F1407F19D0012718E0D5F88800616EE8
:100B800020F440000843C5F88800E6E7E86840F430
:100B90008030E86009E00021201D01F0BBFB03E08C
:100BA0000021584601F04CFC0746F7B13E4620684C
:100BB00080033AD5A86D4FF00008C00009D4A86D95
:100BC00040F08050A865A86D4FF0010800F08050FB
:100BD0000090DFF8D8A2DAF8001041F48071CAF86A
:100BE0000010FFF7B9FE814610E0D5F88800A16E2D
:100BF00020F040700843C5F88800D8E7FFF7ACFE46
:100C0000A0EB0900022801D9032705E0DAF800006B
:100C1000C005F3D5002F7CD04FEA0706B8F1000FCE
:100C200003D0A86D20F08050A8652078C00707D0B9
:100C3000D5F88800A16B20F003000843C5F88800B0
:100C40002078800707D5D5F88800E16B20F00C00EC
:100C50000843C5F888002078400707D5D5F88800F4
:100C6000216C20F030000843C5F888002078000788
:100C700007D5D5F88800616C20F0C0000843C5F89E
:100C800088002078C00607D5D5F88800A16C20F42C
:100C900040700843C5F888002078800607D5D5F84D
:100CA0008800E16C20F440600843C5F88800208883
:100CB000800507D5D5F88800E16D20F44020084371
:100CC000C5F888002088400507D5D5F88800216E32
:100CD00020F440100843C5F888002078400607D566
:100CE000D5F88800216D20F440500843C5F88800ED
:100CF0002078000607D5D5F88800616D20F44040C3
:100D00000843C5F888002088C00509D5D5F88800B3
:100D100000E01CE0A16D20F440300843C5F88800D5
:100D200020884FF0006780044FF080684FD5D5F8D9
:100D30008800E16E20F040600843C5F88800E06E4E
:100D4000B8423CD1E86840F48010E8603FE0D5F854
:100D5000900010F4407015D0D4F88410814211D066
:100D6000D5F89000D5F8901020F4407041F480310F
:100D7000C5F89010D5F8901021F48031C5F8901086
:100D8000C5F89000C00710D0FFF7E6FD074641F216
:100D9000883906E0FFF7E0FDC11B494501D903266C
:100DA0003CE7D5F890008007F4D5D5F89000D4F84A
:100DB000841020F440700843C5F890002EE74045A9
:100DC00005D10121201D01F0A5FA00B106462068D9
:100DD000000317D5D5F88800216F20F04060084344
:100DE000C5F88800206FB84204D1E86840F480104C
:100DF000E86007E0404505D10121201D01F08AFA95
:100E000000B106462068400317D5D5F88800616F09
:100E100020F040600843C5F88800606FB84204D1F4
:100E2000E86840F48010E86007E0404505D1012102
:100E3000201D01F06FFA00B10646208840041AD543
:100E4000D5F88800A16F20F040500843C5F888000D
:100E5000A06FB0F1805F03D0B0F1005F05D00AE071
:100E60000221201D01F056FA03E00221584601F04C
:100E7000E7FA00B106462088000407D5D5F88800B7
:100E8000E16F20F080400843C5F888002068C00367
:100E900007D555F8880FD4F8801020F0004008439B
:100EA0002860304600F004B8001002400070004096
:100EB00018BCBDE8E08F00002DE9F0470F460500A3
:100EC00058D0404E306800F00700B84209D2306870
:100ED00020F0070038433060306800F00700B84267
:100EE00048D12878384CC0072CD06868032811D026
:100EF000022812D0216898B1490500293ADAA16880
:100F000021F003010143A160FFF726FD804641F275
:100F1000883910E021688901EFE721688903ECE74F
:100F20008907EAE7FFF718FDA0EB0801494502D958
:100F30000320BDE8F087A068696800F00C00B0EB02
:100F4000810FEFD12878800705D5A068A96820F027
:100F5000F0000843A060306800F00700B8420BD9E9
:100F6000306820F0070038433060306800F0070038
:100F7000B84201D00120DCE72878400705D5A068F9
:100F8000E96820F4E0600843A0602878000706D5EF
:100F9000A068296920F4605040EAC100A06000F018
:100FA0003FF8A168094AC1F30311515C01F01F0128
:100FB000C8400749086007480068BDE8F047FFF7E8
:100FC000EFBC000000200240001002408039000801
:100FD0003C00002030000020054806490068896870
:100FE000054AC1F30221515C01F01F01C84070475E
:100FF0003C00002000100240C039000805480649A6
:1010000000688968054AC1F3C221515C01F01F01E3
:10101000C84070473C00002000100240C039000862
:1010200070B52549002318468A68CC6812F00C0276
:1010300004F00306214C4FEA640509D00C2A05D0C0
:10104000042A32D0082A00D1284670BD012E10D1C2
:101050000B681B0704D4D1F89430C3F3032302E0D8
:101060000B68C3F30313164E56F82330DAB10C2A7B
:10107000EBD1C86800F00300022818D0032818D06C
:101080001846CA68CB68C2F30212C3F3062343436F
:10109000521CB3FBF2F2C868C0F34160401C400030
:1010A000B2FBF0F070BD184670BD204670BD204602
:1010B000E7E72846E5E70000001002400024F400BE
:1010C000903900082DE9F84304006ED0FD4DA86862
:1010D00000F00C06E86800F003072078C00663D52E
:1010E00076B10C2E01D1012F0AD0A0690028286802
:1010F00078D040F001002860FFF72EFC80465BE0CE
:101100002868800702D5A0690028DED0216A2868F7
:10111000000703D5286800F0F00004E0D5F894003B
:10112000F02202EA1010814216D9084601F00CFAAA
:1011300000283AD1286840F0080028602868216A11
:1011400020F0F000084328606868E16920F47F40DF
:1011500040EA0120686015E0286840F00800286037
:101160002868216A20F0F000084328606868E16977
:1011700020F47F4040EA01206860206A01F0E4F931
:101180000028D6D1FFF74CFFA968CF4AC1F303115D
:10119000515C01F01F01C840CC490860CC48006890
:1011A000FFF7FEFB00287DD12DE0C9E0FFF7D4FB5F
:1011B000A0EB0800022876D828688007F6D52868B2
:1011C00040F0080028602868216A20F0F0000843F9
:1011D00028606868E16920F47F4040EA0120686087
:1011E00011E0FFE720F001002860FFF7B5FB804623
:1011F00006E000BFFFF7B0FBA0EB08000228DAD83A
:1012000028688007F6D42078C00740D0082E18D070
:101210000C2E01D1032F14D06068B0F5803F17D099
:10122000B0F5A02F286817D020F4803028602868F7
:1012300020F4802028606068E0B1FFF78DFB8046D5
:1012400014E02868800322D56068002878D01EE06A
:10125000286840F48030EDE740F480202860F7E70C
:10126000FFF77AFBA0EB08006428A4D82868800365
:10127000F6D50CE0FFF770FB804605E0FFF76CFB4E
:10128000A0EB0800642896D828688003F6D420785C
:1012900080073BD5042E11D00C2E01D1022F0DD08A
:1012A000E06801E03EE19FE0002828681ED040F49D
:1012B00080702860FFF750FB07460CE02868400567
:1012C0000CD5E0680028C1D008E000BFFFF744FB60
:1012D000C01B022893D828684005F7D56868217C90
:1012E00020F0F85040EA016068600FE020F4807060
:1012F0002860FFF731FB074605E000BFFFF72CFB36
:10130000C01B022870D828684005F7D42078000751
:1013100029D560690028D5F8940012D040F001006A
:10132000C5F89400FFF718FB074604E0FFF714FB2D
:10133000C01B022858D8D5F894008007F6D512E0D3
:1013400029E120F00100C5F89400FFF705FB0746EE
:1013500005E000BFFFF700FBC01B022844D8D5F80A
:1013600094008007F6D42078400768D5A86D002740
:10137000C00008D4A86D40F08050A865A86D012772
:1013800000F08050009053480168C90512D40168EC
:10139000814641F480710160FFF7DEFA804605E086
:1013A000FFF7DAFAA0EB080002281DD8D9F80000F0
:1013B000C005F5D5A068012817D00528D5F89000FC
:1013C00018D020F00100C5F89000D5F8900020F06A
:1013D000040000BFC5F89000A06841F28839D0B180
:1013E000FFF7BAFA804611E06BE0D5F8900040F0C4
:1013F0000100EFE740F00400C5F89000F5E700BFFA
:10140000FFF7AAFAA0EB080149455AD8D5F8900091
:101410008007F5D50EE0FFF79FFA804606E000BF93
:10142000FFF79AFAA0EB080149457AD8D5F8900061
:101430008007F5D41FB1A86D20F08050A865A06A80
:10144000F0B30C2E75D00228286820F08070286038
:1014500004D0286810F0205F51D054E0FFF77CFAE8
:10146000064604E0FFF778FA801B022859D828685E
:101470008001F7D4D4E90B016FF00F0202EB0111E8
:101480000843A18F5204490802EB4151626B41EAC3
:101490000221084394F840104FF07E42490802EBC5
:1014A00041610843A16B090940EA4140E9680A4AE1
:1014B00011400843E860286840F0807028600DE023
:1014C0006BE02EE000100240803900083C00002054
:1014D00030000020007000408C809DF9E86840F0EA
:1014E0008070E860FFF738FA044604E0FFF734FA4A
:1014F000001B022815D828688001F7D54DE0E86860
:1015000020F00300E860E86825490840E860FFF73C
:1015100023FA044609E000BFFFF71EFA001B022869
:1015200003D90320BDE8F88303E028688001F3D4E1
:1015300033E00128F6D0E868E26A00F00301914246
:1015400029D1216B00F0700209011039914222D19A
:10155000626B00F4FE41B1EB022F1CD1A26B00F4D0
:101560000031072A01D0012200E00022914212D16D
:10157000A18F00F4C00249084905A1F5001191426C
:1015800009D194F8401000F0C06049084906A1F163
:101590000071814201D00120C4E70020C2E70000B1
:1015A000FFFFEEFE10B5401EB0F1807F01D3012099
:1015B00010BD4FF0E02460610F21601701F00CFDB9
:1015C0000020A06107202061002010BD70477047F7
:1015D0007047000070B590F83C20012A24D0012407
:1015E00080F83C40022280F83D20026853689568EC
:1015F0000E4EB24202D00E4EB24203D123F4700618
:101600004B68334323F070060B688968334325F039
:101610008005294353600268916080F83D400021B5
:1016200080F83C10084670BD022070BD002C0140BF
:101630000034014010B5040003D094F83D0010B10F
:1016400007E0012010BD002084F83C00204600F097
:101650000DF8022084F83D00211D206801F016F8E5
:10166000012084F83D00002010BD000010B586B0B8
:10167000044614216846FEF7DEFD21681B48B1F1DF
:10168000804F0CD01A4A914207D1816D41F002017E
:101690008165806D00F00200059006B010BD816D7F
:1016A00041F001018165816D01F001010591C16C7D
:1016B00041F00101C164C06C022100F001000590FD
:1016C0000120CDE9000100210291CDE90310694616
:1016D0004FF09040FFF756F8002211461C20FFF70C
:1016E000A5F91C20FFF794F9D7E70000001002408D
:1016F0000004004070B5044690F83C00012817D063
:10170000012584F83C50022084F83D00226890684E
:101710002E4B184020F47F4090600868502830D04D
:101720000DDC20284DD005DC98B310283BD148E0D3
:10173000022070BD302844D0402834D139E06028E0
:1017400028D0702806D0B0F5805F2CD0B0F5005FAF
:1017500029D10AE0CB68D1E90121206801F003F822
:101760002068816841F0770109E0CB68D1E9012167
:10177000206800F0F8FF2068816841F480418160B2
:1017800011E0CA684968206801F088F95021206892
:1017900007E016E0CA684968206801F0CDF96021C9
:1017A000206800F0EAFF84F83D50002084F83C00F7
:1017B00070BDCA684968206801F070F9402120684E
:1017C000EFE7226801461046EBE7000088FFFEFFC6
:1017D0002DE9F0412DED048B0068B0F1804F7BD1F5
:1017E000484C494D494F20784FF6F576002865D092
:1017F000012873D002286FD10021284600F077FB22
:10180000B8600021284600F06FF9D7E90001081AF6
:101810006060BA68571AA760FEF7ABFE9FED3C9B6D
:1018200053EC192BFEF7C1FD41EC180B384684ED43
:10183000048BFEF79EFE53EC192BFEF7B6FD41EC30
:10184000100B51EC180B84ED060B53EC102BFEF72C
:10185000FDFC884648EC100B074653EC102B9FED1F
:101860002E0B51EC100BFEF715FE9FED2D1B53ECCC
:10187000112BFEF79AFD48EC107BC4E9080153ECEC
:10188000102B51EC180BFEF705FE9FED271B53ECB8
:10189000112BFEF78AFDC4E90A0100202070286898
:1018A000016A314001622868016A01622846BDEC84
:1018B000048B0021BDE8F04100F0E6B80021124899
:1018C00000F015FB38602868016A31400162286821
:1018D000016A41F002010CE00FE0FFE700210A4835
:1018E00000F005FB78602868016A314001622868D1
:1018F000016A01622078401C2070BDEC048BBDE8B9
:10190000F081000000000020500000204400002072
:10191000FCA9F1D24D62503F000000000000F03FF2
:101920000000000000408F4000000000000059400F
:101930002DE9F041044690F83C000D4601283DD0C9
:10194000012684F83C60022084F83D00AAB3042AF2
:1019500046D02068082A55D0D5E90027E968036AEF
:1019600023F480530362D0F81CC0036A2CF4407C3B
:101970004CEA07274FF6FF7C27F470470CEA013149
:1019800039434FF4204723F4204307EA02321A4335
:10199000C16102622068C16921F44061C1612068AF
:1019A000C169AA6841EA0221C0F81C1084F83D60B0
:1019B000002084F83C00BDE8F08101E00220FAE755
:1019C000D5E90012EB68206801F07AF82068816997
:1019D00021F00C01816120688169AA6811430FE040
:1019E000D5E90012EB68206801F0B8F82068816939
:1019F00021F44061816120688169AA6841EA02217D
:101A00008161D3E7D5E9002C2F7B016A21F4807135
:101A10000162C169036A21F0030141EA0C0121F06E
:101A2000F00C39074FF420674CEA116123F420636E
:101A300007EA02221A43C16102622068C16921F0EB
:101A40000C01C1612068C169AA681143ACE710B5F7
:101A5000040003D094F83D0010B107E0012010BD50
:101A6000002084F83C00204600F00CF8022084F8A6
:101A70003D00211D206800F009FE012084F83D0092
:101A8000002010BD7047000010B50268044631B157
:101A9000042908D008291DD00C2908D11EE0D068DF
:101AA00040F0020002E0D06840F00400D060012263
:101AB000206800F04BFE206881680A4A1140062920
:101AC00006D0B1F5803F03D0016841F0010101600B
:101AD000002010BDD06840F00800E7E7D06840F073
:101AE0001000E3E70700010010B50268044631B1B9
:101AF000042908D008291ED00C2908D11FE0D0687D
:101B000020F0020002E0D06820F00400D060002243
:101B1000206800F01BFE2068016A41F21112114298
:101B200007D1016A9210114203D1016821F001012D
:101B30000160002010BDD06820F00800E6E7D06802
:101B400020F01000E2E770B50446006801694FF02C
:101B50000005C943890715D4C168C943890711D451
:101B6000E91E0161012020772068806980072046F6
:101B700002D0FFF72DFE04E000F0D0F8204600F080
:101B80007EF9257720680169C943490717D4C168E0
:101B9000C943490713D46FF0040101610220207783
:101BA0002068806910F4407F204602D0FFF710FEC5
:101BB00004E000F0B3F8204600F061F925772068D2
:101BC0000169C943090716D4C168C943090712D47A
:101BD0006FF008010161042020772068C069800748
:101BE000204602D0FFF7F4FD04E000F097F820460D
:101BF00000F045F9257720680169C943C90617D463
:101C0000C168C943C90613D46FF0100101610820EF
:101C100020772068C06910F4407F204602D0FFF78B
:101C2000D7FD04E000F07AF8204600F028F9257787
:101C300020680169C943C90708D1C168C943C907F8
:101C400004D1891E0161204600F050F92068016925
:101C5000C943090609D4C168C943090605D46FF010
:101C6000800101612046FFF7B2FC20680169C94389
:101C7000C90509D4C168C943090605D46FF4807148
:101C800001612046FFF7A2FC20680169C9434906AB
:101C900009D4C168C943490605D46FF04001016108
:101CA000204600F039F920680169C94389060BD440
:101CB000C168C943890607D46FF02001016120463D
:101CC000BDE87040FFF784BC70BD000010B586B061
:101CD000044614216846FEF7AEFA0E492068884291
:101CE00015D10D48C16C41F00101C164C06C0021E7
:101CF00000F001000590402000900220CDE9010194
:101D0000CDE9031069464FF09040FEF73BFD06B069
:101D100010BD00000004004000100240704770B584
:101D2000044690F83C000D4601280ED0012684F8A8
:101D30003C60022084F83D000C2A45D007DC5AB1F3
:101D4000042A1BD0082A78D12CE0022070BD102A6A
:101D50004ED0142A71D15DE0206800F017FD206894
:101D6000816941F0080181612068816921F00401E5
:101D70008161206881692A69114311E0206800F0BF
:101D800053FD2068816941F40061816120688169A7
:101D900021F480618161206881692A6941EA022118
:101DA00081614AE0206800F087FD2068C16941F048
:101DB0000801C1612068C16921F00401C161206886
:101DC000C1692A69114311E0206800F0BDFD206857
:101DD000C16941F40061C1612068C16921F4806179
:101DE000C1612068C1692A6941EA0221C16124E018
:101DF000206800F0E3FD2068416D41F00801416575
:101E00002068416D21F0040141652068416D2A6917
:101E1000114311E0206800F009FE2068416D41F493
:101E2000006141652068416D21F480614165206851
:101E3000416D2A6941EA0221416584F83D60002034
:101E400084F83C0070BD10B5040003D094F83D0048
:101E500010B107E0012010BD002084F83C002046AE
:101E600000F00CF8022084F83D00211D206800F0ED
:101E70000DFC012084F83D00002010BD7047704724
:101E800010B504460068012200F060FC114821688A
:101E900081420BD01048814208D01048814205D0C1
:101EA0000F48814202D00F48814203D1486C40F470
:101EB00000404864206881680B4A1140062906D01A
:101EC000B1F5803F03D0016841F0010101600020BD
:101ED00010BD0000002C01400034014000400140D2
:101EE00000440140004801400700010070470246DD
:101EF000002041B1042909D008290AD00C2901D1B8
:101F00001068006C70471068406B70471068806BF9
:101F100070471068C06B7047704710B5040002D05E
:101F2000606F10B107E0012010BD002084F8700040
:101F3000204600F025F8242060672068016821F021
:101F400001010160204600F0B5FE0128ECD0606A76
:101F500010B1204600F01DFE2068416821F4904138
:101F600041602068816821F02A0181602068016851
:101F700041F0010101602046BDE8104000F06DBE57
:101F8000F0B587B0044614216846FEF754F91D4F9A
:101F9000266800221C490223032407254FF09040A5
:101FA000BE4211D10E6E46F480460E660E6E06F4E9
:101FB00080460596CE6C46F00106CE64C96C01F0F1
:101FC00001010591610213E0104FBE4218D18E6DE0
:101FD00046F400368E658E6D06F400360596CE6C9E
:101FE00046F00106CE64C96C01F0010105910C2197
:101FF000CDE9001302AE694686E83400FEF7C2FB65
:1020000007B0F0BD0038014000100240004400401D
:102010002DE9F8430446406F1F4616460D4620281A
:102020004ED1CDB1C6B194F87000012848D001203E
:1020300084F870004FF00008C4F87C8021206067AD
:10204000FEF78AFCA4F850608146A4F85260A068AC
:10205000B0F5805F03D004E00120BDE8F88320697B
:1020600010B12E46002510E000260EE0802120460B
:1020700000F070FFB8B9C6B116F8010B21680885E9
:10208000B4F85200401EA4F85200B4F852004B4677
:102090004FF0000200970028E8D14FF040012046A1
:1020A00000F058FF30B10320D7E735F8020BC0F33A
:1020B0000800E3E72020606784F870800020CCE708
:1020C0000220CAE7FEE7000030B587B01421684659
:1020D000FEF7B1F81F48C16C41F00401C164C16C46
:1020E00001F004010591C16C41F08001C164C16C33
:1020F00001F080010591C16C41F00101C164C16C26
:1021000001F001010591C16C41F00201C164C06C94
:102110004FF0904500F00200059000222021284653
:10212000FEF715FC4FF4005000900B480024CDE959
:10213000010469460948FEF725FB20200090012094
:10214000CDE90104694628460394FEF71BFB07B05E
:1021500030BD0000001002400000211000080048BF
:1021600010B58CB00024059421480494069407947B
:1021700008940A9409940094019402944FF08041C9
:10218000039401604F21C0E90114611EC0E90314EA
:1021900080218161FFF74EFA08B1FEF7DFFA4FF4B4
:1021A0008050049004A91248FFF7A4FA08B1FEF782
:1021B000D5FA0F48FFF74BFC08B1FEF7CFFA0894A9
:1021C00008A90B480A94FFF705FA08B1FEF7C6FA0A
:1021D0000120CDE90040029400226946044803949E
:1021E000FFF7A6FB002801D0FEF7B8FA0CB010BD2F
:1021F0005000002010B58EB0002407940894099474
:102200000A940B940C941C2168460D94FEF713F865
:102210001F481E49016040F28F11C0E90114C72117
:10222000C0E9031480218161FFF704FA08B1FEF7C9
:1022300095FA4FF48050079007A91548FFF75AFA0E
:1022400008B1FEF78BFA1248FFF7FDFD08B1FEF763
:1022500085FA0B940BA90E480D94FFF7BBF908B152
:10226000FEF77CFA602000906320CDE90104002293
:10227000694607480494FFF752FD08B1FEF76EFA6D
:102280000348FFF723FD0EB010BD0000000400401E
:10229000900000200D4810B50B4901604FF4E1316A
:1022A0004160002181600C22C160C0E9041281619B
:1022B000C16101624162FFF730FE002803D0BDE832
:1022C0001040FEF74BBA10BD00380140D00000208E
:1022D0000D4810B50B4901604FF4E1314160002118
:1022E00081600C22C160C0E904128161C161016298
:1022F0004162FFF712FE002803D0BDE81040FEF750
:102300002DBA10BD0044004050010020FEE7704788
:10231000704700002DE9F041444C05468846E068CE
:102320000026810728680DD0E16801F00301814291
:1023300016D1A8B1E0686968C0F30210401C884259
:102340000ED120E0012804D0022805D0032807D1AF
:1023500008E02168890701E021684905002907DBB9
:1023600001265FE02168890302D421684903F5E76B
:10237000E1686A686FF00F0321F0730103EB02124A
:1023800011430143E160206820F080602060FEF787
:10239000E3FA074605E000BFFEF7DEFAC01B02289D
:1023A00037D820680001F7D4B8F1000F18D0B8F181
:1023B000010F1ED0287D4FF07E41400801EB4060A8
:1023C000A96840EA01202169194A114008432061A7
:1023D000206840F080602060FEF7BEFA07461AE0F1
:1023E000A868E9680002090940EA41402169114AE8
:1023F000EBE7288A1049400801EB4050A96840EA01
:10240000012021690D4AE0E7FEF7A6FAC01B022869
:1024100001D9032606E020680001F5D52069A969E5
:10242000084320613046BDE8F08100000010024002
:10243000FF80FFF9FF80FDFF0000E0FFFF809FFFAE
:102440002DE9F0413D4C06468846E06800258107AD
:1024500030680DD0E16801F00301814216D1A8B1C6
:10246000E0687168C0F30210401C88420ED120E081
:10247000012804D0022805D0032807D108E02168EC
:10248000890701E021684905002907DB012551E0A2
:102490002168890302D421684903F5E7E16872687D
:1024A0006FF00F0321F0730103EB0212114301439C
:1024B000E160206820F080502060FEF74DFA07466A
:1024C00005E000BFFEF748FAC01B022829D82068A3
:1024D0008000F7D4B8F1000F15D0307C4FF07E416A
:1024E000400801EB4060B16840EA01206169144A8C
:1024F000114008436061206840F080502060FEF782
:102500002BFA07460FE0B068F1680002090940EABB
:10251000414061690B4AEBE7FEF71EFAC01B022837
:1025200001D9032506E020688000F5D5606971694E
:10253000084360612846BDE8F081000000100240B9
:10254000FF80FFF9FF80FDFFF8B51C4D0646002413
:10255000A86DC00002D5FEF7CFFA0DE0A86D40F0DF
:102560008050A865A86D00F080500090FEF7C4FA76
:10257000A96D21F08051A965B0F5007F04D0802EAF
:1025800007D94FF003040AE0802E08D9A02E01D805
:1025900004E001D1022402E0702E00D10124084899
:1025A000016821F0070121430160006800F0070085
:1025B000A04201D00120F8BD0020F8BD001002406B
:1025C000002002407047FEF7CDB930B5B9B04421C4
:1025D00022A8FDF730FE142133A8FDF72CFE882138
:1025E0006846FDF728FE0220C101259110212290A6
:1025F00026912C900121CDE92D010A212F9107214F
:10260000CDE93010329022A8FEF75CFD00240325AE
:102610000F20CDE9345433903694042133A83794F5
:10262000FEF74AFC00950E9468460F94FEF76CFA8C
:102630004FF40070FEF72CFA39B030BD0D48016838
:1026400041F4700101600C48016841F00101016032
:10265000002181600268094B1A4002608214C26046
:10266000026822F48022026081610249C00380393D
:102670000860704788ED00E000100240FFFFF6EAB6
:102680000148FFF760BA0000500000202DE9F04734
:102690000268264B264D274E274F284C4FF0804A84
:1026A000984209D0504507D0A84205D0B04203D087
:1026B000B84201D0A04204D122F0700C4A6842EA2C
:1026C0000C02DFF87CC0DFF87C80DFF87C90984259
:1026D0000FD050450DD0A8420BD0B04209D0B8421F
:1026E00007D0A04205D0604503D0404501D0484501
:1026F00003D122F44075CA682A434D6922F0800252
:102700002A4302608A68C2620A688262984207D0DD
:10271000A04205D0604503D0404501D0484501D1D5
:102720000969016301214161BDE8F087002C014086
:102730000004004000080040000C0040003401404C
:1027400000400140004401400048014010B501F044
:102750001F030121046A99408C430462016A9A4074
:102760001143016210BD10B5846842EA032224F4CB
:102770007F440A432243826010BD826822F07002C7
:102780000A4342F007018160704700002DE9F043E1
:10279000026A22F001020262056A436882691C4CE7
:1027A00025F0020522400C6822F0030214438A68D7
:1027B000194E2A43174D194FDFF864C0DFF86490B3
:1027C000A84207D0B04205D0B84203D0604501D03E
:1027D000484506D122F00808CA6842EA080222F0F9
:1027E0000402A84207D0B04205D0B84203D06045E9
:1027F00001D0484505D14D6923F440731D438B69D1
:102800002B4343608461496841630262BDE8F08301
:102810008FFFFEFF002C01400034014000400140CA
:102820000044014000480140F0B5026A22F0100265
:102830000262056A42688369194C1B4E23400C688A
:1028400023F4407343EA042425F020038D6843EA0F
:102850000513144DA84201D0B04206D1CF6823F031
:10286000800343EA071323F04003A8420AD0B04292
:1028700008D00E4DA84205D00D4DA84202D00D4DF6
:10288000A84207D14D6922F4406242EA85028D696F
:1028900042EA850242608461496881630362F0BD57
:1028A000FF8FFFFE002C014000340140004001403A
:1028B0000044014000480140F0B5026A22F48072F1
:1028C0000262056A4368C269194C1B4E22400C68BB
:1028D00022F00302144325F400728D6842EA0522B7
:1028E000144DA84201D0B04206D1CF6822F4006254
:1028F00042EA072222F48062A8420AD0B04208D0FD
:102900000E4DA84205D00E4DA84202D00D4DA84252
:1029100007D14D6923F4405343EA05138D6943EA17
:1029200005134360C4614968C1630262F0BD0000E1
:102930008FFFFEFF002C01400034014000400140A9
:10294000004401400048014030B5026A22F4805240
:102950000262046A4268C369124D24F400542B4099
:102960000D6823F4407343EA05238D6844EA053477
:102970000D4DA8420BD00D4DA84208D00C4DA842D9
:1029800005D00C4DA84202D00B4DA84204D14D6990
:1029900022F4804242EA85124260C36149680164C0
:1029A000046230BDFF8FFFFE002C01400034014067
:1029B00000400140004401400048014030B5026A37
:1029C00022F480320262046A4268436D114D2B404A
:1029D0000D681D4324F400330C8943EA04430E4C74
:1029E000A0420BD00D4CA04208D00D4CA04205D007
:1029F0000C4CA04202D00C4CA04204D14C6922F4F1
:102A0000803242EA0422426045654968816503627A
:102A100030BD00008FFFFEFF002C0140003401405C
:102A200000400140004401400048014030B5026AC6
:102A300022F480120262046A4268436D114D24F44C
:102A400000142B400D6843EA05230D8944EA055420
:102A50000D4DA8420BD00D4DA84208D00C4DA842F8
:102A600005D00C4DA84202D00B4DA84204D14D69AF
:102A700022F4802242EA8522426043654968C165AA
:102A8000046230BDFF8FFFFE002C01400034014086
:102A900000400140004401400048014010B5036A75
:102AA000046A24F001040462846924F0F00444EA16
:102AB000021423F00A020A438461026210BD00007E
:102AC00070B5046A24F0010404628469056A144E36
:102AD000B04211D0B0F1804F0ED0124EB0420BD0A8
:102AE000114EB04208D0114EB04205D0104EB04247
:102AF00002D0104EB04203D124F00304144301E08D
:102B000044F001041A0724F0F00444EA126225F0AC
:102B10000A0301F00A0119438261016270BD0000DD
:102B2000002C01400004004000080040000C004060
:102B3000003401400040014010B5036A23F0100347
:102B400003628369046A23F4704343EA023224F087
:102B5000A00343EA01118261016210BD30B5046A2D
:102B600024F0100404628469056A24F4407444EA81
:102B7000022222F470444FF6FF7202EA033222432B
:102B8000A02425F0A00304EA011119438261016227
:102B900030BD90F82410C90706D001684A68836ADE
:102BA00022F400321A434A6090F82410890706D5AF
:102BB00001684A68C36A22F480321A434A6090F876
:102BC0002410490706D501684A68036B22F4802265
:102BD0001A434A6090F82410090706D501684A682C
:102BE000436B22F400421A434A6090F82410C9064D
:102BF00006D501688A68836B22F480521A438A6082
:102C000090F82410890606D501688A68C36B22F4FF
:102C100000521A438A6090F82410490611D50168C1
:102C20004A68036C22F480121A434A60016CB1F5C1
:102C3000801F06D101684A68436C22F4C0021A431F
:102C40004A6090F82410090606D501684A68806C2D
:102C500022F4002202434A607047F8B50026044679
:102C6000C667FDF779FE0546206800686FF07E476D
:102C7000000708D52B4600224FF40011204600978C
:102C800000F068F960B92068006840070AD52B4653
:102C900000224FF480012046009700F05BF908B154
:102CA0000320F8BD20206067A06784F870600020D2
:102CB000F8BD00002DE9F0410546016880682B69E8
:102CC000EC6918436B69002723431843954A0B6846
:102CD000954C234003430B6028684168EB6821F45E
:102CE0004051194341602968A869914201D02B6A7B
:102CF00018438B6823F4306303438B608B4B296844
:102D00008B4899420DD1D0F8880010F0030006D00E
:102D1000012868D0022864D0032851D165E001243D
:102D20004FE0844B99420BD1D0F8880010F00C0092
:102D300055D0042857D0082853D00C2840D154E04F
:102D40007D4B99420BD1D0F8880010F0300046D06E
:102D5000102848D0202844D0302831D145E0774B86
:102D600099420BD1D0F8880010F0C00037D040282D
:102D700039D0802835D0C02822D136E0704B994216
:102D80000ED1D0F8880010F4407028D0B0F5807FC4
:102D900029D0B0F5007F24D0B0F5407F10D124E0D9
:102DA00091420DD1D0F8880010F4406017D0B0F5F2
:102DB000806F18D0B0F5006F13D0B0F5406F14D00D
:102DC0001024604B00264FF40040914245D174B16D
:102DD000022C0FD0042C0FD0082C18D10FE00024A7
:102DE000EFE70224EDE70424EBE70824E9E7FEF728
:102DF000F3F803E0184602E0FEF712F9A8B36A6898
:102E000002EB4201814202D8B0EB023F01D9012717
:102E100075E0DFF834815CB1022C0CD0042C13D0A7
:102E2000082CF4D150082105401846F1000105E0B6
:102E3000FEF7D2F80AE050084449F5E70023FDF711
:102E4000BFF9A0F5407156E0FEF7EAF86A68010E96
:102E50000302500818187141F0E7E9694FF6EF785E
:102E600081422FD1092CD2D200E048E0DFE804F003
:102E700006092005230505052600C8E7FEF7ACF87E
:102E800001E0FEF7BBF84100D5F8040001EB50016A
:102E9000B1FBF0F080B2A0F110014145B7D84FF678
:102EA000F0710140C0F3420001432868C16026E090
:102EB00027496868EAE7FEF7B3F8E4E74FF48031A2
:102EC0006868E3E7092CA2D2DFE804F006091E05D2
:102ED0002205050525009AE7FEF77EF801E0FEF7DA
:102EE0008DF80146686801EB500100BFB1FBF0F0BE
:102EF00080B2A0F11001414589D82968C8602E66CA
:102F000038466E66BDE8F081686803EB5001EDE776
:102F1000FEF786F8E5E7696800EB5100B0FBF1F0D9
:102F2000E6E7000000800040F369FFEF0038014051
:102F3000001002400044004000480040004C0040A7
:102F4000005000400024F400FFFC0F00000024F4B7
:102F50000048E8012DE9F041984617460E46044620
:102F6000069D08E0681C06D0FDF7F6FCA0EB080003
:102F7000A8420BD855B12068C06936EA000017D0C6
:102F80000020B842EED00020BDE8F0812068016842
:102F900021F4D07101602068816821F00101816015
:102FA00020206067A067002084F870000320EBE712
:102FB0000120E6E7FEE700000FB4054B10B503A9BA
:102FC000044A029800F0EEF810BC5DF814FB000013
:102FD000D9380008400000200907090E002804DB4A
:102FE00000F1E02080F80014704700F00F0000F1BD
:102FF000E02080F8141D704702E008C8121F08C1C5
:10300000002AFAD170477047002001E001C1121F69
:10301000002AFBD1704700002DE9FF5F82B000213C
:10302000DDE90430020DDDF840B0034318D044F66A
:103030001050A2F2FF3242431514119801281FD0FC
:10304000A5EB0B00401C5FEA000A4FF000064E4F54
:10305000DFF83891B046504615D5CAF1000413E0A8
:10306000119801244AA3012801D16FEA0B010298AB
:10307000119AC0E90031C0E9024206B000F08EB8F2
:10308000CBF10000DFE704460021404A491842EB3B
:103090000450CDE9001012E0E00707D032463B466D
:1030A00040464946FDF781F98046894632463B460F
:1030B00010461946FDF779F906460F466410002CB4
:1030C000EAD1DDE90401DDE90023BAF1000F06DAF7
:1030D000FDF76BF942464B46FDF767F905E0FDF752
:1030E000D9F942464B46FDF7D5F904460E46002273
:1030F000284BFDF707FB03D84FF0FF30014607E0F0
:103100000022254B20463146FDF7A0F8FDF7E2FAF4
:10311000102409E0002C0ADB0A220023FDF750F8F6
:10312000039B30321A55641E50EA0102F2D1641C2E
:10313000039AC4F111031444119A012A03D0012205
:1031400008430DD10AE0084304D000204FF0110BD2
:10315000119072E7A3EB0B056D1E0DE05B4504DDDE
:103160004FF0000205F1010504E003DA4FF0000220
:10317000A5F10105002AECD002981199C0E90231AD
:10318000C0E9004579E70000000014400000F03F6E
:10319000300000000000F0430000E03F30BCBDE81C
:1031A000C09F00002DE9FF4F95B09B46894606461B
:1031B00000250FE2252877D100242746F84A01216F
:1031C000059400E0044316F8013F203B01FA03F0A8
:1031D0001042F7D130782A2811D06FF02F033078C1
:1031E000A0F13002092A16D8059A44F0020402EB35
:1031F000820203EB42021044761C0590EFE759F877
:10320000042B0592002A03DA504244F4005405903E
:1032100044F00204761C30782E2816D116F8010FDF
:1032200044F004042A280DD06FF02F023078A0F16A
:103230003003092B09D807EB870302EB4303C718B8
:10324000761CF3E759F8047B761C30786C280FD095
:1032500006DC4C2817D068280DD06A2814D104E069
:10326000742810D07A280FD10DE044F400140AE03D
:1032700044F4801401E044F440147278824202D194
:1032800004F58014761C761C307866280BD013DC8D
:10329000582877D009DC002875D04528F6D0462874
:1032A000F4D047281AD19DE118E0632835D064286E
:1032B00079D0652812D195E1702873D008DC672891
:1032C000F1D069286FD06E280DD06F2806D1B5E0F7
:1032D00073282CD0752875D0782874D05A46179941
:1032E00090476D1C75E1C4F30250022809D00328F1
:1032F0000DD0D9F8001004280DD00D6009F1040993
:1033000067E1D9F80010EA17C1E90052F6E7D9F8E9
:1033100000100D80F2E70D70F0E719F8041B8DF82E
:10332000001000208DF80100EA46012003E059F862
:1033300004AB4FF0FF3061074FF0000102D40DE005
:1033400008F101018846B9420FDA8045F8DB1AF826
:1033500008100029F4D108E008F1010188468142F3
:10336000FADB1AF808100029F6D105985B46A0EBA5
:10337000080721463846179A00F097FA284400EBD0
:10338000080507E04DE029E10DE01AF8010B5A4667
:1033900017999047B8F10108F7D25B4621463846A5
:1033A000179A13E142E00A220092C4F302524FF04E
:1033B000000A022A08D059F804CB032A4FEAEC711C
:1033C0000AD00DE029E02AE009F1070121F0070207
:1033D000F2E802C1914609E00FFA8CFC4FEAEC7169
:1033E000042A03D14FFA8CFC4FEAEC71002907DA6A
:1033F0000A460021DCF1000C61EB02012D2202E003
:10340000220504D52B228DF80420012203E0E207D7
:1034100001D02022F7E7904659E00A2102E010226D
:103420000DE010214FF0000A00910BE010224FF048
:10343000000A44F004040827009203E008224FF039
:10344000000A0092C4F30252022A05D059F804CBB4
:103450000021032A08D009E009F1070121F0070241
:10346000F2E802C1914605E01FFA8CFC042A01D162
:103470000CF0FF0C4FF00008220728D5702806D06A
:10348000009B83F0100353EA0A0305D00EE04022AC
:103490008DF80420012208E05CEA010206D0302207
:1034A0008DF804208DF8050002229046009B83F0E1
:1034B000080353EA0A030AD15CEA010201D1620758
:1034C00005D530228DF804204FF001087F1E5828C2
:1034D00004D034A003900EA802900DE036A0F9E7C6
:1034E00053466046009AFCF76BFE84460398825C64
:1034F0000298401E029002705CEA0100F0D102982E
:1035000006A9081A00F1200A600702D524F48034C5
:1035100000E00127574502DDA7EB0A0000E000208C
:1035200000EB0A01009005984144401A0590E00321
:1035300006D45B462146179A059800F0B6F9054473
:10354000002706E001A85A46C05D179990476D1CF8
:103550007F1C4745F6DBE0030CD55B462146179AF6
:10356000059800F0A2F9054404E030205A46179966
:1035700090476D1C0099481E00900029F5DC08E07A
:10358000029802995A460078491C0291179990476F
:103590006D1CBAF10001AAF1010AF1DC65E100003D
:1035A0000928010030313233343536373839616219
:1035B00063646566000000003031323334353637DD
:1035C00038394142434445460000000000F05BF9B1
:1035D0000544761C307800287FF4ECAD19B02846FD
:1035E00000F04EB9620700D4062709F1070222F065
:1035F000070CFCE80223E14603F000485FEA080CF0
:1036000002D00FF2702C0DE05FEA045C02D50FF2DD
:10361000682C07E05FEAC47C02D00FF2602C01E066
:10362000AFF2700C4FF0FF3823F00043CDF850C0DC
:1036300065280CD006DC452809D046281DD047282F
:103640003DD13DE0662818D067287ED138E00021C2
:10365000112F01DB112000E0781CCDE9000106A943
:103660000EA8FFF7D9FCDDE90F010E9A03910021A6
:10367000009207F1010A04914DE04FF000400097DD
:10368000CDE9011006A90EA8FFF7C6FCDDE90F027F
:1036900003920E9B11990022DDF80CA00093049276
:1036A00011B9791C00EB010AB7EB0A0004D4C0F190
:1036B000FF3007F1010A0490AAEB0700019044E0F3
:1036C000012F00DA01270021112F01DD112000E078
:1036D0003846CDE9000106A90EA8FFF79DFCDDE9FB
:1036E0000F010E9A0391002104910092BA4621071E
:1036F0000CD40399514500DA8A46BAF1010F05DD71
:10370000009AAAF10101515C302908D0B84202DACE
:1037100010F1040F06DA0121CDE9011015E0AAF13C
:103720000101E9E7002805DC049901440491AAEBB2
:10373000000102E0411C514500DD8A460499401A0F
:10374000401C01904FF000400290200704D40198E3
:10375000504501DBCDF8048000208DF84F00029821
:103760000DF14F07B0F1004F25D02B200E9002989D
:103770004FF0020800280CDA404202902D200E90F3
:1037800007E00A210298FCF701FF3031029007F8A8
:10379000011DB8F10001A8F10108F2DC029800282F
:1037A000EFD1791E0E980870307800F0200040F0BC
:1037B000450007F8020D12A8C01B00F10708149875
:1037C000007800B1012000EB0A01019801EBE071E3
:1037D00005984144401A401E0590E00306D45B461C
:1037E0002146179A059800F060F80544149800786F
:1037F00018B15A46179990476D1CE00324D55B46D3
:103800002146179A059800F050F805441CE00498EA
:10381000002807DBDDE90301884203DD0098405CF6
:10382000179901E0179930205A469047049805F1FE
:103830000105401C04900198401E019004D12E20E7
:103840005A46179990476D1CBAF10001AAF1010A76
:10385000DDDC05E017F8010B5A46179990476D1CFF
:10386000B8F10001A8F10108F4DC5B462146179A83
:103870000598ABE62D0000002B00000020000000A2
:1038800030BCBDE8C08F2DE9F041044600251E463E
:103890001746880404D405E039462020B0476D1C43
:1038A000641EF9D52846BDE8F0812DE9F0410446B3
:1038B00000251E469046C80301D5302700E020278A
:1038C000880404D505E041463846B0476D1C641EA7
:1038D000F9D52846BDE8F08113B54FF47A7301227B
:1038E00069460448FEF794FB0120FCF739FF0020ED
:1038F0001CBD0000D000002086B0FDF73BF8FEF7AD
:1039000064FEFEF7E1FBFEF72BFCFEF773FCFEF70F
:10391000C1FCFEF7DDFC00211548FEF7B1FA1548A1
:1039200001680A6A4FF6F5731A400A620068016A74
:10393000016200210F48FEF7A7F80F4C4FF4FA651B
:103940000E4894ED060B8DED040B94ED040B8DEDFC
:10395000020B94ED0A0B8DED000B94ED080B53EC6C
:10396000102BFFF729FB2846FCF7FAFEE8E70000DA
:10397000900000205000002000000020C8390008FE
:10398000000000000000000001020304060708090F
:10399000A0860100400D0300801A060000350C00CF
:1039A00040420F0080841E0000093D0000127A0092
:1039B0000024F40000366E010048E801006CDC02CF
:1039C00000000000010203044652455155454E4394
:1039D000593A2025372E336C66487A2C2025342E10
:1039E000316C6625252C20484947484C4556454CA6
:1039F0005F54494D453A2025372E336C666D732C44
:103A0000204C4F574C4556454C5F54494D453A2044
:103A100025372E336C66206D730D0A0D0A000000E9
:103A2000403A00080000002044000000F82F000881
:103A3000843A0008440000208C050000083000088B
:103A40000000000000000000000000000000000076
:103A50000000000000000000000000000000000066
:103A60000000000000000000000000000000000056
:103A700010000000010000000000000000093D00EF
:043A80000000000042
:040000050800018965
:00000001FF
