:020000040800F2
:10000000D80400209D0100089F16000879150008FB
:100010009D160008B10200088522000800000000BB
:10002000000000000000000000000000551900085A
:10003000B302000800000000A116000857190008CC
:10004000B7010008B7010008B7010008B7010008B0
:10005000B7010008B7010008B7010008B7010008A0
:10006000B7010008B7010008B7010008B701000890
:10007000B7010008B7010008B7010008B701000880
:10008000B7010008B7010008B7010008B701000870
:10009000B7010008B7010008B7010008B701000860
:1000A000B7010008B7010008B7010008B701000850
:1000B000B7010008B7010008B7010008B701000840
:1000C000B7010008B7010008B7010008B701000830
:1000D000B7010008B7010008B7010008B701000820
:1000E000B7010008B7010008B7010008B701000810
:1000F000B7010008B7010008B7010008B701000800
:10010000B7010008B7010008B7010008B7010008EF
:10011000B7010008B7010008B7010008B7010008DF
:10012000B7010008B7010008B7010008B7010008CF
:10013000B7010008B7010008B7010008B7010008BF
:10014000B7010008B7010008B7010008B7010008AF
:10015000B7010008B7010008B7010008B70100089F
:10016000B7010008B7010008B7010008B70100088F
:10017000B7010008B7010008B7010008000000003F
:10018000B7010008B7010008DFF80CD000F07EF8D6
:1001900000480047C5220008D804002006488047D0
:1001A00006480047FEE7FEE7FEE7FEE7FEE7FEE75C
:1001B000FEE7FEE7FEE7FEE7C9190008890100082F
:1001C0002DE9F05F0546002092469B46884606468C
:1001D000814640241BE0284641464746224600F01F
:1001E00044F853465A46C01A914110D31146184656
:1001F000224600F02BF82D1A67EB01084F462246E5
:100200000120002100F022F817EB00094E41201ECA
:10021000A4F10104DFDC484631462A46434600F09B
:1002200000B830BCBDE8C09FD2B201E000F8012B9D
:10023000491EFBD270470022F6E710B513460A4666
:1002400004461946FFF7F0FF204610BD202A04DBC4
:10025000203A00FA02F1002070479140C2F12003D9
:1002600020FA03F3194390407047202A04DB203A18
:1002700021FA02F00021704721FA02F3D040C2F1C6
:10028000200291400843194670470000064C074D74
:1002900006E0E06840F0010394E807009847103456
:1002A000AC42F6D3FFF774FF6C2300088C230008E0
:1002B000FEE7704770B5044600F0F4F80546601C90
:1002C00002D004484068044400F0ECF8401BA0420F
:1002D000FAD370BD040000202DE9F84FDFF898B183
:1002E00000234FF0010C4FF0030A4FF00F090BF100
:1002F000040EB9E00CFA03F4224070D04D68022DD0
:1003000001D0122D0ED1DD0800EB8508D8F8205061
:100310005E07F70E09FA07F6B5430E69BE402E4395
:10032000C8F8206007685E0091F804800AFA06F5B4
:1003300008F00308AF4308FA06F848EA0708C0F8CF
:1003400000804F68012F05D0022F03D0112F01D05C
:10035000122F13D1D0F80880CF6828EA0508B740DB
:1003600047EA08078760D0F804800F7928EA040874
:10037000C7F300179F4047EA08074760D1F8048099
:100380006FEA0807BF0706D1C76AA743C8F3C004CE
:100390009C403C43C462C468AC438D68B54025436F
:1003A000C5604C68E4005ED5344C256E45F001050F
:1003B0002566246E23F0030504F001040094304CFC
:1003C0002E19B4689D072F0F09FA07F5AC43B0F159
:1003D000904F05D02B4DA84204D101251CE042E0EE
:1003E000002519E0284DA84201D1022514E0274D2F
:1003F000A84201D103250FE0254DA84201D10425D3
:100400000AE0244DA84201D1052505E0224DA8426D
:1004100001D1062500E00725BD402543B560DBF886
:1004200000405D464E689443F60300D514432C60AB
:10043000DEF8004075464E689443B60300D5144379
:100440002C600D4D08352C684E689443F60200D59B
:1004500014432C60084D0C352C684E689443B6024A
:1004600000D514432C605B1C0A6832FA03F57FF454
:1004700041AF00F013B8000000040140001002403A
:10048000000001400004004800080048000C00483B
:1004900000100048001400480018004818BCBDE8CF
:1004A000E08F0000014880687047000004000020D1
:1004B000024881684268114481607047040000204E
:1004C000094810B50168002441F4807101600320DF
:1004D00000F064F8002000F009F808B1012401E000
:1004E00000F026F8204610BD0020024070B50E4EE8
:1004F00005460024706898B14FF47A71B1FBF0F0B2
:100500000A490968B1FBF0F000F0E4FD40B9102D94
:1005100006D200222946501E00F020F8356000E087
:100520000124204670BD00000400002010000020BF
:10053000094808B5016E41F001010166016E01F044
:1005400001010091816D41F080518165806D00F065
:100550008050009008BD000000100240F0B40E4B27
:100560001B680C46C3F30223C3F10705042D00D911
:100570000425191D072901D2002300E0DB1E0126F6
:1005800006FA05F1491E214099409E40761E16400C
:100590003143F0BC01F077BE0CED00E0064900F0FD
:1005A000070208684FF6FF03184040EA0220034A9A
:1005B00010430860704700000CED00E00000FA05F1
:1005C0001649B0F5007F0868C0F3412009D0022821
:1005D00005D0086820F4C06040F480600860002006
:1005E00070470128FBD0086820F4C06040F4007018
:1005F00008600B483222006850430A4AB0FBF2F010
:10060000401C00E0401E4A69520501D50028F9D17E
:1006100048694005E3D503207047000000700040A2
:100620001000002040420F000248006800F4C06043
:1006300070470000007000402DE9F84F0446002785
:100640000088E54D3E46010504F1200B1DD5606E86
:1006500078B1B0F5800F11D0B0F5000F04D0B0F52F
:10066000400F22D001270FE0E86840F48030E860B6
:100670001BE00021201D01F015F803E00021584681
:1006800001F0A6F8070010D03E462088C00426D509
:10069000A06EC0B1B0F1807F1AD0B0F1007F0DD054
:1006A000B0F1407F19D0012718E0D5F88800616EBD
:1006B00020F440000843C5F88800E6E7E86840F405
:1006C0008030E86009E00021201D00F0EBFF03E02E
:1006D0000021584601F07CF80746F7B13E462068F5
:1006E00080033AD5A86D4FF00008C00009D4A86D6A
:1006F00040F08050A865A86D4FF0010800F08050D0
:100700000090DFF8D8A2DAF8001041F48071CAF83E
:100710000010FFF7C7FE814610E0D5F88800A16EF3
:1007200020F040700843C5F88800D8E7FFF7BAFE0C
:10073000A0EB0900022801D9032705E0DAF8000040
:10074000C005F3D5002F7CD04FEA0706B8F1000FA3
:1007500003D0A86D20F08050A8652078C00707D08E
:10076000D5F88800A16B20F003000843C5F8880085
:100770002078800707D5D5F88800E16B20F00C00C1
:100780000843C5F888002078400707D5D5F88800C9
:10079000216C20F030000843C5F88800207800075D
:1007A00007D5D5F88800616C20F0C0000843C5F873
:1007B00088002078C00607D5D5F88800A16C20F401
:1007C00040700843C5F888002078800607D5D5F822
:1007D0008800E16C20F440600843C5F88800208858
:1007E000800507D5D5F88800E16D20F44020084346
:1007F000C5F888002088400507D5D5F88800216E07
:1008000020F440100843C5F888002078400607D53A
:10081000D5F88800216D20F440500843C5F88800C1
:100820002078000607D5D5F88800616D20F4404097
:100830000843C5F888002088C00509D5D5F8880088
:1008400000E01CE0A16D20F440300843C5F88800AA
:1008500020884FF0006780044FF080684FD5D5F8AE
:100860008800E16E20F040600843C5F88800E06E23
:10087000B8423CD1E86840F48010E8603FE0D5F829
:10088000900010F4407015D0D4F88410814211D03B
:10089000D5F89000D5F8901020F4407041F48031E4
:1008A000C5F89010D5F8901021F48031C5F890105B
:1008B000C5F89000C00710D0FFF7F4FD074641F2DD
:1008C000883906E0FFF7EEFDC11B494501D9032633
:1008D0003CE7D5F890008007F4D5D5F89000D4F81F
:1008E000841020F440700843C5F890002EE740457E
:1008F00005D10121201D00F0D5FE00B1064620687B
:10090000000317D5D5F88800216F20F04060084318
:10091000C5F88800206FB84204D1E86840F4801020
:10092000E86007E0404505D10121201D00F0BAFE36
:1009300000B106462068400317D5D5F88800616FDE
:1009400020F040600843C5F88800606FB84204D1C9
:10095000E86840F48010E86007E0404505D10121D7
:10096000201D00F09FFE00B10646208840041AD5E5
:10097000D5F88800A16F20F040500843C5F88800E2
:10098000A06FB0F1805F03D0B0F1005F05D00AE046
:100990000221201D00F086FE03E00221584600F0EF
:1009A00017FF00B106462088000407D5D5F8880057
:1009B000E16F20F080400843C5F888002068C0033C
:1009C00007D555F8880FD4F8801020F00040084370
:1009D0002860304600F004B800100240007000406B
:1009E00018BCBDE8E08F00002DE9F0470F46050078
:1009F00058D0404E306800F00700B84209D2306845
:100A000020F0070038433060306800F00700B8423B
:100A100048D12878384CC0072CD06868032811D0FA
:100A2000022812D0216898B1490500293ADAA16854
:100A300021F003010143A160FFF734FD804641F23C
:100A4000883910E021688901EFE721688903ECE724
:100A50008907EAE7FFF726FDA0EB0801494502D91F
:100A60000320BDE8F087A068696800F00C00B0EBD7
:100A7000810FEFD12878800705D5A068A96820F0FC
:100A8000F0000843A060306800F00700B8420BD9BE
:100A9000306820F0070038433060306800F007000D
:100AA000B84201D00120DCE72878400705D5A068CE
:100AB000E96820F4E0600843A0602878000706D5C4
:100AC000A068296920F4605040EAC100A06000F0ED
:100AD0003FF8A168094AC1F30311515C01F01F01FD
:100AE000C8400749086007480068BDE8F047FFF7BD
:100AF000FDBC00000020024000100240242300083A
:100B0000100000200400002005480649006889689C
:100B1000054AC1F30221515C01F01F01C840704732
:100B20001000002000100240642300080548064918
:100B300000688968054AC1F3C221515C01F01F01B8
:100B4000C8407047100000200010024064230008D5
:100B500070B52549002318468A68CC6812F00C024B
:100B600004F00306214C4FEA640509D00C2A05D095
:100B7000042A32D0082A00D1284670BD012E10D197
:100B80000B681B0704D4D1F89430C3F3032302E0AD
:100B90000B68C3F30313164E56F82330DAB10C2A50
:100BA000EBD1C86800F00300022818D0032818D041
:100BB0001846CA68CB68C2F30212C3F30623434344
:100BC000521CB3FBF2F2C868C0F34160401C400005
:100BD000B2FBF0F070BD184670BD204670BD2046D7
:100BE000E7E72846E5E70000001002400024F40093
:100BF000342300082DE9F84304006ED0FD4DA868A9
:100C000000F00C06E86800F003072078C00663D502
:100C100076B10C2E01D1012F0AD0A06900282868D6
:100C200078D040F001002860FFF73CFC80465BE094
:100C30002868800702D5A0690028DED0216A2868CC
:100C4000000703D5286800F0F00004E0D5F8940010
:100C5000F02202EA1010814216D9084600F03CFE4C
:100C600000283AD1286840F0080028602868216AE6
:100C700020F0F000084328606868E16920F47F40B4
:100C800040EA0120686015E0286840F0080028600C
:100C90002868216A20F0F000084328606868E1694C
:100CA00020F47F4040EA01206860206A00F014FED2
:100CB0000028D6D1FFF74CFFA968CF4AC1F3031132
:100CC000515C01F01F01C840CC490860CC48006865
:100CD000FFF70CFC00287DD12DE0C9E0FFF7E2FB17
:100CE000A0EB0800022876D828688007F6D5286887
:100CF00040F0080028602868216A20F0F0000843CE
:100D000028606868E16920F47F4040EA012068605B
:100D100011E0FFE720F001002860FFF7C3FB8046E9
:100D200006E000BFFFF7BEFBA0EB08000228DAD800
:100D300028688007F6D42078C00740D0082E18D045
:100D40000C2E01D1032F14D06068B0F5803F17D06E
:100D5000B0F5A02F286817D020F4803028602868CC
:100D600020F4802028606068E0B1FFF79BFB80469C
:100D700014E02868800322D56068002878D01EE03F
:100D8000286840F48030EDE740F480202860F7E7E1
:100D9000FFF788FBA0EB08006428A4D8286880032C
:100DA000F6D50CE0FFF77EFB804605E0FFF77AFB07
:100DB000A0EB0800642896D828688003F6D4207831
:100DC00080073BD5042E11D00C2E01D1022F0DD05F
:100DD000E06801E03EE19FE0002828681ED040F472
:100DE00080702860FFF75EFB07460CE0286840052E
:100DF0000CD5E0680028C1D008E000BFFFF752FB27
:100E0000C01B022893D828684005F7D56868217C64
:100E100020F0F85040EA016068600FE020F4807034
:100E20002860FFF73FFB074605E000BFFFF73AFBEE
:100E3000C01B022870D828684005F7D42078000726
:100E400029D560690028D5F8940012D040F001003F
:100E5000C5F89400FFF726FB074604E0FFF722FBE6
:100E6000C01B022858D8D5F894008007F6D512E0A8
:100E700029E120F00100C5F89400FFF713FB0746B5
:100E800005E000BFFFF70EFBC01B022844D8D5F8D1
:100E900094008007F6D42078400768D5A86D002715
:100EA000C00008D4A86D40F08050A865A86D012747
:100EB00000F08050009053480168C90512D40168C1
:100EC000814641F480710160FFF7ECFA804605E04D
:100ED000FFF7E8FAA0EB080002281DD8D9F80000B7
:100EE000C005F5D5A068012817D00528D5F89000D1
:100EF00018D020F00100C5F89000D5F8900020F03F
:100F0000040000BFC5F89000A06841F28839D0B154
:100F1000FFF7C8FA804611E06BE0D5F8900040F08A
:100F20000100EFE740F00400C5F89000F5E700BFCE
:100F3000FFF7B8FAA0EB080149455AD8D5F8900058
:100F40008007F5D50EE0FFF7ADFA804606E000BF5A
:100F5000FFF7A8FAA0EB080149457AD8D5F8900028
:100F60008007F5D41FB1A86D20F08050A865A06A55
:100F7000F0B30C2E75D00228286820F0807028600D
:100F800004D0286810F0205F51D054E0FFF78AFAAF
:100F9000064604E0FFF786FA801B022859D8286825
:100FA0008001F7D4D4E90B016FF00F0202EB0111BD
:100FB0000843A18F5204490802EB4151626B41EA98
:100FC0000221084394F840104FF07E42490802EB9A
:100FD00041610843A16B090940EA4140E9680A4AB6
:100FE00011400843E860286840F0807028600DE0F8
:100FF0006BE02EE0001002402423000810000020C7
:1010000004000020007000408C809DF9E86840F0EA
:101010008070E860FFF746FA044604E0FFF742FA02
:10102000001B022815D828688001F7D54DE0E86834
:1010300020F00300E860E86825490840E860FFF711
:1010400031FA044609E000BFFFF72CFA001B022822
:1010500003D90320BDE8F88303E028688001F3D4B6
:1010600033E00128F6D0E868E26A00F0030191421B
:1010700029D1216B00F0700209011039914222D16F
:10108000626B00F4FE41B1EB022F1CD1A26B00F4A5
:101090000031072A01D0012200E00022914212D142
:1010A000A18F00F4C00249084905A1F50011914241
:1010B00009D194F8401000F0C06049084906A1F138
:1010C0000071814201D00120C4E70020C2E7000086
:1010D000FFFFEEFE10B5401EB0F1807F01D301206E
:1010E00010BD4FF0E02460610F21601701F0CBF8D4
:1010F0000020A06107202061002010BD70B590F88D
:101100003C20012A24D0012480F83C40022280F8AF
:101110003D200268536895680E4EB24202D00E4ED2
:10112000B24203D123F470064B68334323F07006B8
:101130000B688968334325F08005294353600268B2
:10114000916080F83D40002180F83C10084670BD59
:10115000022070BD002C01400034014010B5040095
:1011600003D094F83D0010B107E0012010BD00202D
:1011700084F83C00204600F00DF8022084F83D0081
:10118000211D206800F042FC012084F83D00002071
:1011900010BD000008B50068B0F1804F08D10548C7
:1011A000816D41F001018165806D00F001000090CA
:1011B00008BD00000010024070B5044690F83C00E5
:1011C000012817D0012584F83C50022084F83D0006
:1011D000226890682E4B184020F47F409060086889
:1011E000502830D00DDC20284DD005DC98B31028D5
:1011F0003BD148E0022070BD302844D0402834D193
:1012000039E0602828D0702806D0B0F5805F2CD057
:10121000B0F5005F29D10AE0CB68D1E9012120684F
:1012200000F061FC2068816841F0770109E0CB683B
:10123000D1E90121206800F056FC2068816841F462
:101240008041816011E0CA684968206800F0E6FDCD
:101250005021206807E016E0CA684968206800F05D
:10126000EEFD6021206800F048FC84F83D5000202D
:1012700084F83C0070BDCA684968206800F0CEFD63
:1012800040212068EFE7226801461046EBE70000A6
:1012900088FFFEFF10B586B0044614216846FEF7AD
:1012A000CAFF2068B0F1804F16D10C48C16C41F0E4
:1012B0000101C164C06C694600F001000590202066
:1012C00000900220019000200290039001200490E1
:1012D0004FF09040FFF700F806B010BD001002403C
:1012E00070B5044690F83C000D4601280ED001264A
:1012F00084F83C60022084F83D000C2A45D007DCCD
:101300005AB1042A1BD0082A78D12CE0022070BDE3
:10131000102A4ED0142A71D15DE0206800F0F6FB4F
:101320002068816941F0080181612068816921F0AC
:1013300004018161206881692A69114311E02068F4
:1013400000F032FC2068816941F40061816120680D
:10135000816921F480618161206881692A6941EA9B
:10136000022181614AE0206800F066FC2068C169C2
:1013700041F00801C1612068C16921F00401C16127
:101380002068C1692A69114311E0206800F09CFCC3
:101390002068C16941F40061C1612068C16921F41C
:1013A0008061C1612068C1692A6941EA0221C16185
:1013B00024E0206800F0C2FC2068416D41F0080183
:1013C00041652068416D21F0040141652068416D4F
:1013D0002A69114311E0206800F0E8FC2068416DA3
:1013E00041F4006141652068416D21F480614165EF
:1013F0002068416D2A6941EA0221416584F83D6017
:10140000002084F83C0070BD10B5040003D094F8AF
:101410003D0010B107E0012010BD002084F83C0021
:10142000204600F00CF8022084F83D00211D2068C1
:1014300000F0ECFA012084F83D00002010BD704758
:1014400010B504460068012200F040FB11482168F5
:1014500081420BD01048814208D01048814205D00B
:101460000F48814202D00F48814203D1486C40F4BA
:1014700000404864206881680B4A1140062906D064
:10148000B1F5803F03D0016841F001010160002007
:1014900010BD0000002C014000340140004001401C
:1014A00000440140004801400700010010B504005D
:1014B00002D0606F10B107E0012010BD002084F859
:1014C0007000204600F026F824206067206801683C
:1014D00021F001010160204600F054FD0128ECD00C
:1014E000606A10B1204600F0BCFC2068416821F41D
:1014F000904141602068816821F02A018160206864
:10150000016841F0010101602046BDE8104000F093
:101510000CBD000010B586B0044614216846FEF7E5
:101520008AFE1349206888421FD11248816D41F418
:1015300000318165816D01F400310591C16C41F08C
:101540000101C164C06C694600F0010005900C20E7
:1015500000900220019000200290032003900720B9
:1015600004904FF09040FEF7B7FE06B010BD0000AB
:101570000044004000100240FEE7000000B587B0C4
:1015800014216846FEF757FE1648C16C41F004016D
:10159000C164C16C01F004010591C16C41F080018E
:1015A000C164C16C01F080010591C16C41F0010181
:1015B000C164C16C01F001010591C16C41F00201EF
:1015C000C164C06C694600F0020005904FF4005001
:1015D000009005480190002002900448FEF77CFE30
:1015E00007B000BD001002400000211000080048B4
:1015F00010B58EB000240794089409940A940B94B3
:101600000C941C2168460D94FEF715FE17484FF008
:10161000804101602721C0E9011440F2E731C0E9AF
:10162000031480218161FFF799FD4FF480500790EA
:1016300007A90E48FFF7C0FD0C48FFF7E5FE0B9425
:101640000BA90A480D94FFF759FD6020009040F265
:10165000F310CDE901040022694604480494FFF721
:101660003FFE0248FFF716FE0EB010BD140000202A
:101670000948084901604FF4E1314160002181606F
:101680000C22C160C0E904128161C1610162416242
:10169000FFF70CBF0044004054000020FEE77047F5
:1016A000704700002DE9F041444C05468846E0684B
:1016B0000026810728680DD0E16801F0030181420E
:1016C00016D1A8B1E0686968C0F30210401C8842D6
:1016D0000ED120E0012804D0022805D0032807D12C
:1016E00008E02168890701E021684905002907DB36
:1016F00001265FE02168890302D421684903F5E7E8
:10170000E1686A686FF00F0321F0730103EB0212C6
:1017100011430143E160206820F080602060FEF703
:10172000C1FE074605E000BFFEF7BCFEC01B022855
:1017300037D820680001F7D4B8F1000F18D0B8F1FD
:10174000010F1ED0287D4FF07E41400801EB406024
:10175000A96840EA01202169194A11400843206123
:10176000206840F080602060FEF79CFE07461AE08B
:10177000A868E9680002090940EA41402169114A64
:10178000EBE7288A1049400801EB4050A96840EA7D
:10179000012021690D4AE0E7FEF784FEC01B022804
:1017A00001D9032606E020680001F5D52069A96962
:1017B000084320613046BDE8F0810000001002407F
:1017C000FF80FFF9FF80FDFF0000E0FFFF809FFF2B
:1017D0002DE9F0413D4C06468846E068002581072A
:1017E00030680DD0E16801F00301814216D1A8B143
:1017F000E0687168C0F30210401C88420ED120E0FE
:10180000012804D0022805D0032807D108E0216868
:10181000890701E021684905002907DB012551E01E
:101820002168890302D421684903F5E7E1687268F9
:101830006FF00F0321F0730103EB02121143014318
:10184000E160206820F080502060FEF72BFE074604
:1018500005E000BFFEF726FEC01B022829D820683D
:101860008000F7D4B8F1000F15D0307C4FF07E41E6
:10187000400801EB4060B16840EA01206169144A08
:10188000114008436061206840F080502060FEF7FE
:1018900009FE07460FE0B068F1680002090940EA56
:1018A000414061690B4AEBE7FEF7FCFDC01B0228D3
:1018B00001D9032506E020688000F5D560697169CB
:1018C000084360612846BDE8F08100000010024036
:1018D000FF80FFF9FF80FDFFF8B51C4D0646002490
:1018E000A86DC00002D5FEF79FFE0DE0A86D40F088
:1018F0008050A865A86D00F080500090FEF794FE1F
:10190000A96D21F08051A965B0F5007F04D0802E2B
:1019100007D94FF003040AE0802E08D9A02E01D881
:1019200004E001D1022402E0702E00D10124084815
:10193000016821F0070121430160006800F0070001
:10194000A04201D00120F8BD0020F8BD00100240E7
:10195000002002407047FEF7ABBD30B5B9B044215E
:1019600022A8FEF768FC142133A8FEF764FC882146
:101970006846FEF760FC0224E001259010202294C6
:1019800026902C940120CDE92D400A202F9007208D
:10199000CDE9300422A83294FFF72CF90F2000255E
:1019A00033900320CDE934053695042133A83795CB
:1019B000FFF71AF80F9568460094FEF73DFE2002E7
:1019C000FEF7FEFD39B030BD0D48016841F47001ED
:1019D00001600C48016841F0010101600021816053
:1019E0000268094B1A4002608214C260026822F445
:1019F0008022026081610249C0038039086070471B
:101A000088ED00E000100240FFFFF6EA2DE9F04704
:101A10000268264B264D274E274F284C4FF0804A10
:101A2000984209D0504507D0A84205D0B04203D013
:101A3000B84201D0A04204D122F0700C4A6842EAB8
:101A40000C02DFF87CC0DFF87C80DFF87C909842E5
:101A50000FD050450DD0A8420BD0B04209D0B842AB
:101A600007D0A04205D0604503D0404501D048458D
:101A700003D122F44075CA682A434D6922F08002DE
:101A80002A4302608A68C2620A688262984207D06A
:101A9000A04205D0604503D0404501D0484501D162
:101AA0000969016301214161BDE8F087002C014013
:101AB0000004004000080040000C004000340140D9
:101AC00000400140004401400048014010B501F0D1
:101AD0001F030121046A99408C430462016A9A4001
:101AE0001143016210BD10B5846842EA032224F458
:101AF0007F440A432243826010BD826822F0700254
:101B00000A4342F007018160704700002DE9F0436D
:101B1000026A22F001020262056A436882691C4C73
:101B200025F0020522400C6822F0030214438A6863
:101B3000194E2A43174D194FDFF864C0DFF864903F
:101B4000A84207D0B04205D0B84203D0604501D0CA
:101B5000484506D122F00808CA6842EA080222F085
:101B60000402A84207D0B04205D0B84203D0604575
:101B700001D0484505D14D6923F440731D438B695D
:101B80002B4343608461496841630262BDE8F0838E
:101B90008FFFFEFF002C0140003401400040014057
:101BA0000044014000480140F0B5026A22F01002F2
:101BB0000262056A42688369194C1B4E23400C6817
:101BC00023F4407343EA042425F020038D6843EA9C
:101BD0000513144DA84201D0B04206D1CF6823F0BE
:101BE000800343EA071323F04003A8420AD0B0421F
:101BF00008D00E4DA84205D00D4DA84202D00D4D83
:101C0000A84207D14D6922F4406242EA85028D69FB
:101C100042EA850242608461496881630362F0BDE3
:101C2000FF8FFFFE002C01400034014000400140C6
:101C30000044014000480140F0B5026A22F480727D
:101C40000262056A4368C269194C1B4E22400C6847
:101C500022F00302144325F400728D6842EA052243
:101C6000144DA84201D0B04206D1CF6822F40062E0
:101C700042EA072222F48062A8420AD0B04208D089
:101C80000E4DA84205D00E4DA84202D00D4DA842DF
:101C900007D14D6923F4405343EA05138D6943EAA4
:101CA00005134360C4614968C1630262F0BD00006E
:101CB0008FFFFEFF002C0140003401400040014036
:101CC000004401400048014030B5026A22F48052CD
:101CD0000262046A4268C369124D24F400542B4026
:101CE0000D6823F4407343EA05238D6844EA053404
:101CF0000D4DA8420BD00D4DA84208D00C4DA84266
:101D000005D00C4DA84202D00B4DA84204D14D691C
:101D100022F4804242EA85124260C361496801644C
:101D2000046230BDFF8FFFFE002C014000340140F3
:101D300000400140004401400048014030B5026AC3
:101D400022F480320262046A4268436D114D2B40D6
:101D50000D681D4324F400330C8943EA04430E4C00
:101D6000A0420BD00D4CA04208D00D4CA04205D093
:101D70000C4CA04202D00C4CA04204D14C6922F47D
:101D8000803242EA04224260456549688165036207
:101D900030BD00008FFFFEFF002C014000340140E9
:101DA00000400140004401400048014030B5026A53
:101DB00022F480120262046A4268436D114D24F4D9
:101DC00000142B400D6843EA05230D8944EA0554AD
:101DD0000D4DA8420BD00D4DA84208D00C4DA84285
:101DE00005D00C4DA84202D00B4DA84204D14D693C
:101DF00022F4802242EA8522426043654968C16537
:101E0000046230BDFF8FFFFE002C01400034014012
:101E100000400140004401400048014010B5036A01
:101E2000046A24F001040462846924F0F00444EAA2
:101E3000021423F00A020A438461026210BD10B545
:101E4000036A23F0100303628369046A23F4704376
:101E500043EA023224F0A00343EA011182610162E5
:101E600010BD90F82410C90706D001684A68836A3B
:101E700022F400321A434A6090F82410890706D5EC
:101E800001684A68C36A22F480321A434A6090F8B3
:101E90002410490706D501684A68036B22F48022A2
:101EA0001A434A6090F82410090706D501684A6869
:101EB000436B22F400421A434A6090F82410C9068A
:101EC00006D501688A68836B22F480521A438A60BF
:101ED00090F82410890606D501688A68C36B22F43D
:101EE00000521A438A6090F82410490611D50168FF
:101EF0004A68036C22F480121A434A60016CB1F5FF
:101F0000801F06D101684A68436C22F4C0021A435C
:101F10004A6090F82410090606D501684A68806C6A
:101F200022F4002202434A607047F8B500260446B6
:101F3000C667FEF7B7FA0546206800686FF07E476F
:101F4000000708D52B4600224FF4001120460097C9
:101F500000F068F960B92068006840070AD52B4690
:101F600000224FF480012046009700F05BF908B191
:101F70000320F8BD20206067A06784F8706000200F
:101F8000F8BD00002DE9F0410546016880682B6925
:101F9000EC6918436B69002723431843954A0B6883
:101FA000954C234003430B6028684168EB6821F49B
:101FB0004051194341602968A869914201D02B6AB8
:101FC00018438B6823F4306303438B608B4B296881
:101FD0008B4899420DD1D0F8880010F0030006D04C
:101FE000012868D0022864D0032851D165E001247B
:101FF0004FE0844B99420BD1D0F8880010F00C00D0
:1020000055D0042857D0082853D00C2840D154E08C
:102010007D4B99420BD1D0F8880010F0300046D0AB
:10202000102848D0202844D0302831D145E0774BC3
:1020300099420BD1D0F8880010F0C00037D040286A
:1020400039D0802835D0C02822D136E0704B994253
:102050000ED1D0F8880010F4407028D0B0F5807F01
:1020600029D0B0F5007F24D0B0F5407F10D124E016
:1020700091420DD1D0F8880010F4406017D0B0F52F
:10208000806F18D0B0F5006F13D0B0F5406F14D04A
:102090001024604B00264FF40040914245D174B1AA
:1020A000022C0FD0042C0FD0082C18D10FE00024E4
:1020B000EFE70224EDE70424EBE70824E9E7FEF765
:1020C00023FD03E0184602E0FEF742FDA8B36A686C
:1020D00002EB4201814202D8B0EB023F01D9012755
:1020E00075E0DFF834815CB1022C0CD0042C13D0E5
:1020F000082CF4D150082105401846F1000105E0F4
:10210000FEF702FD0AE050084449F5E70023FEF718
:1021100057F8A0F5407156E0FEF71AFD6A68010E07
:102120000302500818187141F0E7E9694FF6EF789B
:1021300081422FD1092CD2D200E048E0DFE804F040
:1021400006092005230505052600C8E7FEF7DCFC87
:1021500001E0FEF7EBFC4100D5F8040001EB500173
:10216000B1FBF0F080B2A0F110014145B7D84FF6B5
:10217000F0710140C0F3420001432868C16026E0CD
:1021800027496868EAE7FEF7E3FCE4E74FF48031AB
:102190006868E3E7092CA2D2DFE804F006091E050F
:1021A0002205050525009AE7FEF7AEFC01E0FEF7E3
:1021B000BDFC0146686801EB500100BFB1FBF0F0C7
:1021C00080B2A0F11001414589D82968C8602E6607
:1021D00038466E66BDE8F081686803EB5001EDE7B4
:1021E000FEF7B6FCE5E7696800EB5100B0FBF1F0E3
:1021F000E6E7000000800040F369FFEF003801408F
:10220000001002400044004000480040004C0040E4
:10221000005000400024F400FFFC0F00000024F4F4
:102220000048E8012DE9F041984617460E4604465D
:10223000069D08E0681C06D0FEF734F9A0EB080004
:10224000A8420BD855B12068C06936EA000017D003
:102250000020B842EED00020BDE8F081206801687F
:1022600021F4D07101602068816821F00101816052
:1022700020206067A067002084F870000320EBE74F
:102280000120E6E7FEE70907090E002804DB00F15C
:10229000E02080F80014704700F00F0000F1E0200B
:1022A00080F8141D704702E008C8121F08C1002AF8
:1022B000FAD170477047002001E001C1121F002AC7
:1022C000FBD17047FEF7FCF8FFF747FBFFF756F925
:1022D000FFF78EF9FFF7CCF900211048FFF7B0F8AF
:1022E0000E4D0F4C4FF47A7607E0401C80B22080F0
:1022F000296848630120FDF7DDFF2088B042F4D350
:1023000007E0401E80B22080296848630120FDF765
:10231000D1FF20880028F0D0F3E70000140000204F
:102320000000002000000000000000000102030483
:1023300006070809A0860100400D0300801A060068
:1023400000350C0040420F0080841E0000093D0053
:1023500000127A000024F40000366E010048E80103
:10236000006CDC0200000000010203048C23000862
:102370000000002014000000A6220008A02300088E
:1023800014000020C4040000B62200080000000071
:1023900010000000010000000000000000093D00E6
:040000050800018965
:00000001FF
