:020000040800F2
:10000000781400207D0200084B1A0008E918000847
:10001000491A0008B5030008ED260008000000009A
:100020000000000000000000000000009D0100082A
:10003000B703000800000000F9010008BD1D00081A
:10004000970200089702000897020008970200082C
:10005000970200089702000897020008970200081C
:10006000970200089702000897020008970200080C
:1000700097020008970200089702000897020008FC
:1000800097020008970200089702000897020008EC
:1000900097020008970200089702000897020008DC
:1000A00097020008970200089702000897020008CC
:1000B00097020008970200089702000897020008BC
:1000C00097020008970200089702000897020008AC
:1000D000970200089702000897020008970200089C
:1000E000970200089702000897020008970200088C
:1000F000970200089702000897020008970200087C
:10010000970200089702000897020008970200086B
:100110009702000897020008970200089D1E000839
:10012000970200089702000897020008970200084B
:10013000970200089702000897020008970200083B
:10014000970200089702000897020008970200082B
:10015000970200089702000897020008970200081B
:10016000970200089702000897020008970200080B
:10017000970200089702000897020008000000009C
:100180009702000897020008DFF80CD000F000F991
:10019000004800472D270008781400202C4B1968D0
:1001A000086800F05AB880F30988BFF36F8F4FF0EA
:1001B000000080F3118870470000000008480068C4
:1001C000006880F308884FF0000080F3148862B65E
:1001D00061B6BFF34F8FBFF36F8F00DF00BF00BF6B
:1001E00008ED00E0DFF80C00016841F470010160E7
:1001F000704700BF88ED00E0EFF30980BFF36F8F19
:10020000134B1A681EF0100F08BF20ED108A20E96A
:10021000F04F106009B44FF0500080F31188BFF325
:100220004F8FBFF36F8F02F01BFE4FF0000080F383
:10023000118809BC1968086800F014B81EF0100F86
:1002400008BF00F014B880F30988BFF36F8F7047C0
:100250001C000020EFF30580704730C8B0E8C04FA5
:10026000FFF7A1BF30C8B0E8C04FFFF7E7BFB0EC61
:10027000088AB0EC08CAFFF7E6BF000006488047CE
:1002800006480047FEE7FEE7FEE7FEE7FEE7FEE77B
:10029000FEE7FEE7FEE7FEE7591E000889010008B9
:1002A0002DE9F05F0546002092469B4688460646AB
:1002B000814640241BE0284641464746224600F03E
:1002C00056F853465A46C01A914110D31146184663
:1002D000224600F03DF82D1A67EB01084F462246F2
:1002E0000120002100F034F817EB00094E41201ED8
:1002F000A4F10104DFDC484631462A46434600F0BB
:1003000000B830BCBDE8C09F40EA01039B0703D0A2
:1003100009E008C9121F08C0042AFAD203E011F844
:10032000013B00F8013B521EF9D27047D2B201E006
:1003300000F8012B491EFBD270470022F6E710B5EA
:1003400013460A4604461946FFF7F0FF204610BD43
:10035000202A04DB203A00FA02F100207047914085
:10036000C2F1200320FA03F3194390407047202A7A
:1003700004DB203A21FA02F00021704721FA02F34F
:10038000D040C2F120029140084319467047000056
:10039000064C074D06E0E06840F0010394E80700D2
:1003A00098471034AC42F6D3FFF7F2FE88320008CB
:1003B000A8320008FEE77047704700002DE9F04FB3
:1003C000DFF83492002309F1040A012403250AF11D
:1003D000040B87B00F270BF1040E04E104FA03F6B7
:1003E00032407CD0D1F804C0BCF1010F08D0BCF180
:1003F000020F05D0BCF1110F02D0BCF1120F29D1B0
:10040000D0F808C0CDF800C04FEA430C05FA0CF84C
:10041000CDF80CC0DDF800C02CEA080CCDF800C007
:10042000D1F80C80DDF80CC008FA0CF8DDF800C03B
:1004300048EA0C08C0F80880D0F8048091F804C09D
:1004400028EA0608CCF3001C0CFA03FC4CEA080C62
:10045000C0F804C0D1F804806FEA080C5FEA8C7C15
:1004600009D1D0F82CC02CEA060CC8F3C0069E4077
:1004700046EA0C06C662D0F80CC04FEA430805FAFB
:1004800008F62CEA060CCDF8148002968E6806FA5F
:1004900008F646EA0C06C6604E68022E01D0122EFF
:1004A00015D1DE0800EB86060396366A4FEA437CD8
:1004B0004FEADC6807FA08FC26EA0C06D1F810C0FF
:1004C0000CFA08FC4CEA060C039EC6F820C006682D
:1004D000DDF808C026EA0C0691F804C000E081E0CF
:1004E000DDF814800CF0030C0CFA08FC4CEA060C46
:1004F000C0F800C04E68F60074D5404ED6F860C013
:100500004CF0010CC6F860C0366E23F0030C06F008
:10051000010600963A4E66440296D6F808C09E0739
:100520004FEA167807FA08F62CEA060CB0F1904F5D
:1005300004D0344EB04203D101261BE0002619E05E
:10054000314EB04201D1022614E0304EB04201D10A
:1005500003260FE02E4EB04201D104260AE02D4EB4
:10056000B04201D1052605E02B4EB04201D106264E
:1005700000E0072606FA08F646EA0C06DDF808C091
:10058000CCF80860D9F80060CC46D1F804809643D6
:100590005FEAC83800D51643CCF80060DAF800608E
:1005A000D446D1F8048096435FEA883800D51643D4
:1005B000CCF80060DBF80060DC46D1F8048096439C
:1005C0005FEAC82800D51643CCF80060DEF800606A
:1005D000F446D1F8048096435FEA882800D5164394
:1005E000CCF800605B1C0A6832FA03F67FF4F6AEC2
:1005F00007B000F013B800000004014000100240F2
:10060000000001400004004800080048000C0048B9
:1006100000100048001400480018004830BCBDE835
:10062000C08F0069084000D00120704701488068F1
:10063000704700000C0000200248816842681144A5
:10064000816070470C000020094810B50168002443
:1006500041F480710160032000F08EF8002000F06A
:1006600009F808B1012401E000F03EF8204610BD71
:100670000020024000B5014687B00022372000F07C
:100680005BF8372000F04AF81348816D41F02001F3
:100690008165806D05A900F020000690684600F095
:1006A00021FB00F03FFB0D490D4AB0FBF1F10D4875
:1006B000491E0260416040F2E7320021C0E9032197
:1006C000816000F08BFE10B1012007B000BD05482D
:1006D00000F0A0FEF9E700000010024040420F00C9
:1006E00000140040900300200B4882B0016E41F0DE
:1006F00001010166016E01F001010091816D41F07F
:1007000080518165806D002200F0805000900F21A3
:10071000901E02B000F010B800100240002809DB63
:1007200000F01F02012191404009800000F1E0200B
:10073000C0F8001170470000F0B40E4B1B680C4667
:10074000C3F30223C3F10705042D00D90425191DA5
:10075000072901D2002300E0DB1E012606FA05F17D
:10076000491E214099409E40761E16403143F0BC00
:1007700001F0BDBF0CED00E0064900F0070208687B
:100780004FF6FF03184040EA0220034A1043086076
:10079000704700000CED00E00000FA051649B0F5C6
:1007A000007F0868C0F3412009D0022805D00868FE
:1007B00020F4C06040F48060086000207047012889
:1007C000FBD0086820F4C06040F4007008600B485B
:1007D0003222006850430A4AB0FBF2F0401C00E0AD
:1007E000401E4A69520501D50028F9D148694005E3
:1007F000E3D503207047000000700040180000207F
:1008000040420F000248006800F4C06070470000DA
:10081000007000402DE9F84F044600270088E54DA0
:100820003E46010504F1200B1DD5606E78B1B0F590
:10083000800F11D0B0F5000F04D0B0F5400F22D0DA
:1008400001270FE0E86840F48030E8601BE00021F9
:10085000201D01F0FBF803E00021584601F08CF95F
:10086000070010D03E462088C00426D5A06EC0B137
:10087000B0F1807F1AD0B0F1007F0DD0B0F1407F91
:1008800019D0012718E0D5F88800616E20F44000E7
:100890000843C5F88800E6E7E86840F48030E8607F
:1008A00009E00021201D01F0D1F803E000215846A5
:1008B00001F062F90746F7B13E46206880033AD559
:1008C000A86D4FF00008C00009D4A86D40F080501A
:1008D000A865A86D4FF0010800F080500090DFF887
:1008E000D8A2DAF8001041F48071CAF80010FFF7BE
:1008F0009DFE814610E0D5F88800A16E20F0407082
:100900000843C5F88800D8E7FFF790FEA0EB090080
:10091000022801D9032705E0DAF80000C005F3D565
:10092000002F7CD04FEA0706B8F1000F03D0A86D66
:1009300020F08050A8652078C00707D0D5F888003F
:10094000A16B20F003000843C5F8880020788007D9
:1009500007D5D5F88800E16B20F00C000843C5F8F6
:1009600088002078400707D5D5F88800216C20F052
:1009700030000843C5F888002078000707D5D5F86F
:100980008800616C20F0C0000843C5F8880020781A
:10099000C00607D5D5F88800A16C20F44070084344
:1009A000C5F888002078800607D5D5F88800E16C66
:1009B00020F440600843C5F888002088800507D5EA
:1009C000D5F88800E16D20F440200843C5F8880080
:1009D0002088400507D5D5F88800216E20F4401006
:1009E0000843C5F888002078400607D5D5F8880068
:1009F000216D20F440500843C5F888002078000697
:100A000007D5D5F88800616D20F440400843C5F84B
:100A100088002088C00509D5D5F8880000E01CE0D2
:100A2000A16D20F440300843C5F8880020884FF0BD
:100A3000006780044FF080684FD5D5F88800E16EDC
:100A400020F040600843C5F88800E06EB8423CD111
:100A5000E86840F48010E8603FE0D5F8900010F4BA
:100A6000407015D0D4F88410814211D0D5F8900090
:100A7000D5F8901020F4407041F48031C5F8901002
:100A8000D5F8901021F48031C5F89010C5F8900089
:100A9000C00710D0FFF7CAFD074641F2883906E0CB
:100AA000FFF7C4FDC11B494501D903263CE7D5F832
:100AB00090008007F4D5D5F89000D4F8841020F485
:100AC00040700843C5F890002EE7404505D101214C
:100AD000201D00F0BBFF00B106462068000317D5BB
:100AE000D5F88800216F20F040600843C5F88800E1
:100AF000206FB84204D1E86840F48010E86007E055
:100B0000404505D10121201D00F0A0FF00B106469F
:100B10002068400317D5D5F88800616F20F0406049
:100B20000843C5F88800606FB84204D1E86840F413
:100B30008010E86007E0404505D10121201D00F04C
:100B400085FF00B10646208840041AD5D5F88800F4
:100B5000A16F20F040500843C5F88800A06FB0F1A5
:100B6000805F03D0B0F1005F05D00AE00221201DB4
:100B700000F06CFF03E00221584600F0FDFF00B1D9
:100B800006462088000407D5D5F88800E16F20F0DC
:100B900080400843C5F888002068C00307D555F891
:100BA000880FD4F8801020F00040084328603046B9
:100BB00000F004B8001002400070004018BCBDE80E
:100BC000E08F00002DE9F0470F46050058D0404E59
:100BD000306800F00700B84209D2306820F0070002
:100BE00038433060306800F00700B84248D12878B8
:100BF000384CC0072CD06868032811D0022812D0C6
:100C0000216898B1490500293ADAA16821F0030169
:100C10000143A160FFF70AFD804641F2883910E0E8
:100C200021688901EFE721688903ECE78907EAE792
:100C3000FFF7FCFCA0EB0801494502D90320BDE801
:100C4000F087A068696800F00C00B0EB810FEFD16D
:100C50002878800705D5A068A96820F0F00008432F
:100C6000A060306800F00700B8420BD9306820F06F
:100C7000070038433060306800F00700B84201D008
:100C80000120DCE72878400705D5A068E96820F452
:100C9000E0600843A0602878000706D5A0682969AD
:100CA00020F4605040EAC100A06000F05FF8A16845
:100CB000094AC1F30311515C01F01F01C840074903
:100CC000086007480068BDE8F047FFF7D3BC0000A4
:100CD00000200240001002402C32000818000020C2
:100CE0000C0000200F2202600C4A936803F00303FB
:100CF0004360936803F0F0038360936803F4E06358
:100D0000C36092684FF4E06303EAD20202610448D0
:100D1000006800F007000860704700000010024003
:100D2000002002400548064900688968054AC1F369
:100D30000221515C01F01F01C840704718000020DB
:100D4000001002406C3200080548064900688968B6
:100D5000054AC1F3C221515C01F01F01C840704730
:100D600018000020001002406C32000870B52549C0
:100D7000002318468A68CC6812F00C0204F00306BF
:100D8000214C4FEA640509D00C2A05D0042A32D040
:100D9000082A00D1284670BD012E10D10B681B0710
:100DA00004D4D1F89430C3F3032302E00B68C3F3F7
:100DB0000313164E56F82330DAB10C2AEBD1C8686B
:100DC00000F00300022818D0032818D01846CA687B
:100DD000CB68C2F30212C3F306234343521CB3FB96
:100DE000F2F2C868C0F34160401C4000B2FBF0F072
:100DF00070BD184670BD204670BD2046E7E7284606
:100E0000E5E70000001002400024F4003C32000836
:100E10002DE9F84304006FD0FE4DA86800F00C06E1
:100E2000E86800F003072078C00664D576B10C2E80
:100E300001D1012F0AD0A069002828687AD040F09B
:100E400001002860FFF7F2FB80465DE0286880071C
:100E500002D5A0690028DED0216A2868000703D5E2
:100E6000286800F0F00004E0D5F89400F02202EACF
:100E70001010814216D9084600F002FF00283BD12D
:100E8000286840F0080028602868216A20F0F000F7
:100E9000084328606868E16920F47F4040EA012047
:100EA000686016E0286840F0080028602868216A19
:100EB00020F0F000084328606868E16920F47F4072
:100EC00040EA0120686026B9206A00F0D9FE0028B7
:100ED000D5D1FFF74BFFA968CF4AC1F30311515C8D
:100EE00001F01F01C840CD490860CD480068FFF7F8
:100EF000C1FB00287ED12EE0CAE000BFFFF796FBC1
:100F0000A0EB0800022876D828688007F6D5286864
:100F100040F0080028602868216A20F0F0000843AB
:100F200028606868E16920F47F4040EA0120686039
:100F300011E0FFE720F001002860FFF777FB804613
:100F400006E000BFFFF772FBA0EB08000228DAD82A
:100F500028688007F6D42078C00740D0082E18D023
:100F60000C2E01D1032F14D06068B0F5803F17D04C
:100F7000B0F5A02F286817D020F4803028602868AA
:100F800020F4802028606068E0B1FFF74FFB8046C6
:100F900014E02868800322D56068002878D01EE01D
:100FA000286840F48030EDE740F480202860F7E7BF
:100FB000FFF73CFBA0EB08006428A4D82868800356
:100FC000F6D50CE0FFF732FB804605E0FFF72EFB7D
:100FD000A0EB0800642896D828688003F6D420780F
:100FE00080073BD5042E11D00C2E01D1022F0DD03D
:100FF000E06801E092E1F1E0002828681ED040F4AA
:1010000080702860FFF712FB07460CE02868400557
:101010000CD5E0680028C1D008E000BFFFF706FB50
:10102000C01B022893D828684005F7D56868217C42
:1010300020F0F85040EA016068600FE020F4807012
:101040002860FFF7F3FA074605E000BFFFF7EEFA66
:10105000C01B0228B1D828684005F7D420780007C3
:1010600029D560690028D5F8940012D040F001001D
:10107000C5F89400FFF7DAFA074604E0FFF7D6FA5E
:10108000C01B022899D8D5F894008007F6D512E045
:1010900000E120F00100C5F89400FFF7C7FA074609
:1010A00005E000BFFFF7C2FAC01B022885D8D5F8BB
:1010B00094008007F6D42078400766D5A86D0027F5
:1010C000C00008D4A86D40F08050A865A86D012725
:1010D00000F08050009053480168C90512D401689F
:1010E000814641F480710160FFF7A0FA804605E077
:1010F000FFF79CFAA0EB080002286FD8D9F800008F
:10110000C005F5D5A068012816D00528D5F89000AF
:1011100017D020F00100C5F89000D5F8900020F01D
:10112000040000BFC5F89000A06841F28839C0B142
:10113000FFF77CFA80460FE0D5F8900040F0010000
:10114000F0E740F00400C5F89000F5E7FFF76EFA0D
:10115000A0EB0801494541D8D5F890008007F5D5A6
:101160000EE0FFF763FA804606E000BFFFF75EFA85
:10117000A0EB0801494531D8D5F890008007F5D497
:101180001FB1A86D20F08050A865A06A38B302286E
:101190000AD00C2E7ED0286820F080702860286845
:1011A00010F0205F77D0AAE0E868E26A00F003015F
:1011B00091422BD1216B00F070020901103991424C
:1011C00024D1626B00F4FE41B1EB022F1ED1A26B61
:1011D00000F40031072A03D0012202E09DE089E0FB
:1011E0000022914212D1A18F00F4C00249084905A2
:1011F000A1F50011914209D194F8401000F0C060AF
:1012000049084906A1F1007181425CD00C2E41D001
:10121000286809E0001002402C3200081800002065
:101220000C0000200070004040017ED42868C000FF
:101230007BD4286820F080702860FFF7F7F9064615
:1012400005E000BFFFF7F2F9801B022865D8286887
:101250008001F7D4D4E90B016FF00F0202EB01110A
:101260000843A18F5204490802EB4151626B41EAE5
:101270000221084394F840104FF07E42490802EBE7
:1012800041610843A16B090940EA4140E968284AE5
:10129000114001E049E02EE00843E860286840F092
:1012A00080702860E86840F08070E860FFF7BEF961
:1012B000044604E0FFF7BAF9001B02282DD828687D
:1012C0008001F7D52FE0286880012CD4286840F0F1
:1012D00080702860E86840F08070E860FFF7A6F949
:1012E000044604E0FFF7A2F9001B022815D828687D
:1012F0008001F7D517E0E86820F00300E860E868AF
:101300000C490840E860FFF791F9044608E000BF87
:10131000FFF78CF9001B022802D90320BDE8F883EF
:1013200028688001F4D40020F8E70120F6E70000E7
:101330008C809DF9FFFFEEFE7047704770470000FC
:10134000F0B590F83C20012A39D0012480F83C40C7
:10135000022280F83D20026853689568194E1A4FA2
:10136000B24201D0BA4204D123F4700C4B6843EA74
:101370000C0323F0700C0B6843EA0C035360026803
:10138000B24210D0B2F1804F0DD0104B9A420AD029
:101390000F4B9A4207D00F4B9A4204D0BA4202D068
:1013A0000D4B9A4204D1896825F08003194391605E
:1013B00080F83D40002180F83C100846F0BD022036
:1013C000F0BD0000002C014000340140000400404A
:1013D00000080040000C00400040014010B504002F
:1013E00003D094F83D0010B107E0012010BD0020AB
:1013F00084F83C00204600F00CF8022084F83D0000
:10140000211D206800F050FD012084F83D000020DF
:1014100010BD70470168CA6842F00102CA600168E5
:101420008868064A1040062806D0B0F5803F03D0F1
:10143000086840F0010008600020704707000100C4
:10144000704770B50446006801694FF00005C94354
:10145000890715D4C168C943890711D4E91E016100
:1014600001202077206880698007204602D0FFF79E
:10147000E7FF04E000F0CEF8204600F08DF9257774
:1014800020680169C943490717D4C168C94349079E
:1014900013D46FF004010161022020772068806975
:1014A00010F4407F204602D0FFF7CAFF04E000F0AE
:1014B000B1F8204600F070F9257720680169C9432A
:1014C000090716D4C168C943090712D46FF008018F
:1014D0000161042020772068C0698007204602D07F
:1014E000FFF7AEFF04E000F095F8204600F054F955
:1014F000257720680169C943C90617D4C168C94363
:10150000C90613D46FF0100101610820207720680C
:10151000C06910F4407F204602D0FFF791FF04E03D
:1015200000F078F8204600F037F925772068016947
:10153000C943C90708D1C168C943C90704D1891E75
:101540000161204600F060F920680169C94309067D
:1015500009D4C168C943090605D46FF0800101614F
:101560002046FFF7EAFE20680169C943C90509D48E
:10157000C168C943090605D46FF480710161204632
:10158000FFF7DAFE20680169C943490609D4C1683A
:10159000C943490605D46FF040010161204600F0BF
:1015A0003DF920680169C94389060BD4C168C94364
:1015B000890607D46FF0200101612046BDE8704024
:1015C000FFF7BCBE70BD000010B586B00446142104
:1015D0006846FEF7B2FE2068B0F1804F16D10C4885
:1015E000C16C41F00101C164C06C694600F00100AA
:1015F000059020200090022001900020029003908E
:10160000012004904FF09040FEF7D8FE06B010BDC8
:1016100000100240704770B5044690F83C000D463B
:1016200001280ED0012684F83C60022084F83D0099
:101630000C2A45D007DC5AB1042A1BD0082A78D1DD
:101640002CE0022070BD102A4ED0142A71D15DE02A
:10165000206800F097FC2068816941F008018161F1
:101660002068816921F004018161206881692A690B
:10167000114311E0206800F0D3FC2068816941F437
:10168000006181612068816921F480618161206845
:1016900081692A6941EA022181614AE0206800F0FB
:1016A00007FD2068C16941F00801C1612068C16976
:1016B00021F00401C1612068C1692A69114311E068
:1016C000206800F03DFD2068C16941F40061C161FE
:1016D0002068C16921F48061C1612068C1692A69FB
:1016E00041EA0221C16124E0206800F063FD206826
:1016F000416D41F0080141652068416D21F0040110
:1017000041652068416D2A69114311E0206800F0AD
:1017100089FD2068416D41F4006141652068416D9B
:1017200021F4806141652068416D2A6941EA022106
:10173000416584F83D60002084F83C0070BD10B520
:10174000040003D094F83D0010B107E0012010BD63
:10175000002084F83C00204600F00CF8022084F8B9
:101760003D00211D206800F09FFB012084F83D0012
:10177000002010BD08B50068B0F1804F08D10548C1
:10178000816D41F001018165806D00F001000090E4
:1017900008BD0000001002407047000010B504466C
:1017A0000068012200F0E0FB1148216881420BD063
:1017B0001048814208D01048814205D00F4881422C
:1017C00002D00F48814203D1486C40F40040486485
:1017D000206881680B4A1140062906D0B1F5803F88
:1017E00003D0016841F001010160002010BD00003C
:1017F000002C014000340140004001400044014001
:10180000004801400700010000680349884201D1F7
:10181000FEF712BF7047000000140040704710B57B
:10182000040002D0606F10B107E0012010BD00205D
:1018300084F87000204600F025F8242060672068B6
:10184000016821F001010160204600F0B3FD01288C
:10185000ECD0606A10B1204600F01CFD20684168A1
:1018600021F4904141602068816821F02A01816063
:101870002068016841F0010101602046BDE8104088
:1018800000F06CBD10B586B0044614216846FEF722
:1018900054FD1349206888421FD11248816D41F4DC
:1018A00000318165816D01F400310591C16C41F019
:1018B0000101C164C06C694600F0010005900C2074
:1018C0000090022001900020029003200390072046
:1018D00004904FF09040FEF771FD06B010BD00007F
:1018E0000044004000100240FEE7000010B58EB03A
:1018F0001C220B496846FEF707FD0021684600F0F0
:1019000036FF084C06491C2260601C3107A8FEF710
:10191000FBFC002107A800F02AFFA0600EB010BD5C
:10192000F43100080000002000B587B0142168469B
:10193000FEF703FD1648C16C41F00401C164C16C9F
:1019400001F004010591C16C41F08001C164C16CDA
:1019500001F080010591C16C41F00101C164C16CCD
:1019600001F001010591C16C41F00201C164C06C3C
:10197000694600F0020005904FF4005000900548C1
:101980000190002002900448FEF718FD07B000BD4A
:1019900000100240000021100008004810B58AB075
:1019A0000024079408941C2168460994FEF7C5FC9E
:1019B00015484FF0804101604F21C0E9011440F209
:1019C000E731C0E903148461FFF7B9FE08B1FEF7FF
:1019D000F3FC079407A90C480994FFF7B1FC08B180
:1019E000FEF7EAFC6020CDE900040294002269467B
:1019F00005480494FFF70FFE08B1FEF7DDFC02482E
:101A0000FFF7E2FD0AB010BDD00200200D4810B56E
:101A10000B4901604FF4E1314160002181600C22EB
:101A2000C160C0E904128161C16101624162FFF7D6
:101A3000F6FE002803D0BDE81040FEF7BDBC10BD87
:101A40000044004010030020FEE770472DE9F041FC
:101A5000444C05468846E0680026810728680DD07A
:101A6000E16801F00301814216D1A8B1E06869681C
:101A7000C0F30210401C88420ED120E0012804D09F
:101A8000022805D0032807D108E02168890701E072
:101A900021684905002907DB01265FE021688903E9
:101AA00002D421684903F5E7E1686A686FF00F0323
:101AB00021F0730103EB021211430143E16020683E
:101AC00020F080602060FEF7B1FD074605E000BF12
:101AD000FEF7ACFDC01B022837D820680001F7D400
:101AE000B8F1000F18D0B8F1010F1ED0287D4FF0CB
:101AF0007E41400801EB4060A96840EA012021696D
:101B0000194A114008432061206840F0806020603D
:101B1000FEF78CFD07461AE0A868E968000209098B
:101B200040EA41402169114AEBE7288A1049400800
:101B300001EB4050A96840EA012021690D4AE0E725
:101B4000FEF774FDC01B022801D9032606E02068B9
:101B50000001F5D52069A969084320613046BDE838
:101B6000F081000000100240FF80FFF9FF80FDFFC0
:101B70000000E0FFFF809FFF2DE9F0413D4C06464D
:101B80008846E0680025810730680DD0E16801F0E3
:101B90000301814216D1A8B1E0687168C0F3021058
:101BA000401C88420ED120E0012804D0022805D034
:101BB000032807D108E02168890701E02168490569
:101BC000002907DB012551E02168890302D421683F
:101BD0004903F5E7E16872686FF00F0321F07301C4
:101BE00003EB021211430143E160206820F08050B2
:101BF0002060FEF71BFD074605E000BFFEF716FD5F
:101C0000C01B022829D820688000F7D4B8F1000F43
:101C100015D0307C4FF07E41400801EB4060B16848
:101C200040EA01206169144A11400843606120685C
:101C300040F080502060FEF7F9FC07460FE0B068E6
:101C4000F1680002090940EA414061690B4AEBE78B
:101C5000FEF7ECFCC01B022801D9032506E0206832
:101C60008000F5D560697169084360612846BDE868
:101C7000F081000000100240FF80FFF9FF80FDFFAF
:101C8000F8B51C4D06460024A86DC00002D5FEF72D
:101C9000B9FD0DE0A86D40F08050A865A86D00F07A
:101CA00080500090FEF7AEFDA96D21F08051A9652E
:101CB000B0F5007F04D0802E07D94FF003040AE06E
:101CC000802E08D9A02E01D804E001D1022402E020
:101CD000702E00D101240848016821F0070121433A
:101CE0000160006800F00700A04201D00120F8BDAB
:101CF0000020F8BD001002400020024000211848DA
:101D0000FFF74CFD164D174C4FF47A7600272078DC
:101D100040B1012811D002281FD02770012000F007
:101D20001AFDF4E728684663F8E7401C80B260803B
:101D300029684863012000F00EFD6088B042F4D3AA
:101D400007E0401E80B2608029684863012000F0EF
:101D500002FD60880028F4D1E0E728684763DDE7EA
:101D6000D002002000000020124D134C4FF400560A
:101D700001274FF002084FF0000931462846FEF7D0
:101D800050FC01280DD100F0E6FC31462846FEF754
:101D900048FC0128F9D0207838B1012807D084F810
:101DA00000900A2000F0D7FCE7E72770F9E784F8F5
:101DB0000080F6E7000800480000002010B5502021
:101DC00080F31188BFF34F8FBFF36F8F01F04CF991
:101DD00018B104494FF080500860002080F311884A
:101DE00010BD000004ED00E030B5B9B0442122A8D8
:101DF000FEF7A3FA142133A8FEF79FFA882168465C
:101E0000FEF79BFA0224E0012590102022942690F0
:101E10002C940120CDE92D400A202F900720CDE9F8
:101E2000300422A83294FEF7F3FF0F2000253390F0
:101E30000320CDE934053695042133A83795FEF704
:101E4000C1FE0F9568460094FEF7E4FC2002FEF701
:101E5000A5FC39B030BD00000D48016841F47001A7
:101E600001600C48016841F00101016000218160BE
:101E70000268094B1A4002608214C260026822F4B0
:101E80008022026081610249C00380390860704786
:101E900088ED00E000100240FFFFF6EA0148FFF77E
:101EA000D0BA0000900300202DE9F0470268264BCD
:101EB000264D274E274F284C4FF0804A984209D094
:101EC000504507D0A84205D0B04203D0B84201D057
:101ED000A04204D122F0700C4A6842EA0C02DFF8FA
:101EE0007CC0DFF87C80DFF87C9098420FD05045B2
:101EF0000DD0A8420BD0B04209D0B84207D0A042C2
:101F000005D0604503D0404501D0484503D122F4B7
:101F10004075CA682A434D6922F080022A43026054
:101F20008A68C2620A688262984207D0A04205D0DD
:101F3000604503D0404501D0484501D1096901639E
:101F400001214161BDE8F087002C01400004004000
:101F500000080040000C00400034014000400140F7
:101F6000004401400048014010B501F01F03012169
:101F7000046A99408C430462016A9A4011430162E9
:101F800010BD00002DE9F043026A22F00102026256
:101F9000056A436882691C4C25F0020522400C68E2
:101FA00022F0030214438A68194E2A43174D194F31
:101FB000DFF864C0DFF86490A84207D0B04205D0D3
:101FC000B84203D0604501D0484506D122F0080848
:101FD000CA6842EA080222F00402A84207D0B042CE
:101FE00005D0B84203D0604501D0484505D14D69C0
:101FF00023F440731D438B692B434360846149681C
:1020000041630262BDE8F0838FFFFEFF002C0140B8
:1020100000340140004001400044014000480140BC
:10202000F0B5026A22F010020262056A4268836912
:10203000194C1B4E23400C6823F4407343EA0424DC
:1020400025F020038D6843EA0513144DA84201D002
:10205000B04206D1CF6823F0800343EA071323F090
:102060004003A8420AD0B04208D00E4DA84205D085
:102070000D4DA84202D00D4DA84207D14D6922F462
:10208000406242EA85028D6942EA850242608461CB
:10209000496881630362F0BDFF8FFFFE002C0140A1
:1020A000003401400040014000440140004801402C
:1020B000F0B5026A22F480720262056A4368C2695E
:1020C000194C1B4E22400C6822F00302144325F4E5
:1020D00000728D6842EA0522144DA84201D0B04238
:1020E00006D1CF6822F4006242EA072222F480621D
:1020F000A8420AD0B04208D00E4DA84205D00E4DDD
:10210000A84202D00D4DA84207D14D6923F4405397
:1021100043EA05138D6943EA05134360C4614968C6
:10212000C1630262F0BD00008FFFFEFF002C014082
:10213000003401400040014000440140004801409B
:1021400030B5026A22F480520262046A4268C369AE
:10215000124D24F400542B400D6823F4407343EADD
:1021600005238D6844EA05340D4DA8420BD00D4D72
:10217000A84208D00C4DA84205D00C4DA84202D070
:102180000B4DA84204D14D6922F4804242EA8512E7
:102190004260C36149680164046230BDFF8FFFFE85
:1021A000002C014000340140004001400044014047
:1021B0000048014030B5026A22F480320262046AAB
:1021C0004268436D114D2B400D681D4324F40033CC
:1021D0000C8943EA04430E4CA0420BD00D4CA042A4
:1021E00008D00D4CA04205D00C4CA04202D00C4CA3
:1021F000A04204D14C6922F4803242EA04224260B7
:10220000456549688165036230BD00008FFFFEFFB0
:10221000002C0140003401400040014000440140D6
:102220000048014030B5026A22F480120262046A5A
:102230004268436D114D24F400142B400D6843EAAD
:1022400005230D8944EA05540D4DA8420BD00D4DD0
:10225000A84208D00C4DA84205D00C4DA84202D08F
:102260000B4DA84204D14D6922F4802242EA852216
:10227000426043654968C165046230BDFF8FFFFE5F
:10228000002C014000340140004001400044014066
:102290000048014090F82410C90706D001684A6838
:1022A000836A22F400321A434A6090F824108907A6
:1022B00006D501684A68C36A22F480321A434A602C
:1022C00090F82410490706D501684A68036B22F488
:1022D00080221A434A6090F82410090706D5016845
:1022E0004A68436B22F400421A434A6090F8241073
:1022F000C90606D501688A68836B22F480521A43A6
:102300008A6090F82410890606D501688A68C36B34
:1023100022F400521A438A6090F82410490611D51D
:1023200001684A68036C22F480121A434A60016C07
:10233000B1F5801F06D101684A68436C22F4C002DF
:102340001A434A6090F82410090606D501684A68C5
:10235000806C22F4002202434A607047F8B50026E0
:102360000446C667FEF762F90546206800686FF00C
:102370007E47000708D52B4600224FF40011204667
:10238000009700F061F960B92068006840070AD53D
:102390002B4600224FF480012046009700F054F9AC
:1023A00008B10320F8BD20206067A06784F8706042
:1023B0000020F8BD2DE9F0410546016880682B69D1
:1023C000EC6918436B69002723431843924A0B6852
:1023D000924C234003430B6028684168EB6821F46A
:1023E0004051194341602968A869914201D02B6A84
:1023F00018438B6823F4306303438B60884B296850
:10240000884899420DD1D0F8880010F0030006D01A
:10241000012868D0022864D0032851D165E0012446
:102420004FE0814B99420BD1D0F8880010F00C009E
:1024300055D0042857D0082853D00C2840D154E058
:102440007A4B99420BD1D0F8880010F0300046D07A
:10245000102848D0202844D0302831D145E0744B92
:1024600099420BD1D0F8880010F0C00037D0402836
:1024700039D0802835D0C02822D136E06D4B994222
:102480000ED1D0F8880010F4407028D0B0F5807FCD
:1024900029D0B0F5007F24D0B0F5407F10D124E0E2
:1024A00091420DD1D0F8880010F4406017D0B0F5FB
:1024B000806F18D0B0F5006F13D0B0F5406F14D016
:1024C00010245D4B00264FF40040914245D174B179
:1024D000022C0FD0042C0FD0082C18D10FE00024B0
:1024E000EFE70224EDE70424EBE70824E9E7FEF731
:1024F00019FC03E0184602E0FEF738FCA8B36A684E
:1025000002EB4201814202D8B0EB023F01D9012720
:102510006FE0DFF828815CB1022C0CD0042C13D0C2
:10252000082CF4D150082105401846F1000105E0BF
:10253000FEF7F8FB0AE050084149F5E70023FDF7F4
:10254000AFFEA0F5407150E0FEF710FC6A68010E86
:102550000302500818187141F0E7E9694FF6EF7867
:1025600081422FD1092CD2D200E042E0DFE804F012
:1025700006092005230505052600C8E7FEF7D2FB5E
:1025800001E0FEF7E1FB4100D5F8040001EB50014A
:10259000B1FBF0F080B2A0F110014145B7D84FF681
:1025A000F0710140C0F3420001432868C16020E09F
:1025B00024496868EAE7FEF7D9FBE4E74FF4803185
:1025C0006868E3E7092CA2D2DFE804F006091805E1
:1025D0001E05050520009AE7FEF7A4FB16E0FEF7AE
:1025E000B3FB13E080B2A0F1100141458FD82968F8
:1025F000C8602E6638466E66BDE8F081686803EBF9
:102600005001B1FBF0F0EDE7FEF7B0FB696800EBBD
:102610005100B0FBF1F0E5E700800040F369FFEF07
:1026200000380140001002400044004000480040D3
:10263000004C0040005000400024F400FFFC0F005C
:10264000000024F40048E8012DE9F0479A461746B7
:102650000E4604464FF000094FF02008089D39E06F
:10266000681C37D0FDF7E2FFA0EB0A00A84222D891
:102670000DB32068016849072CD5C069C043000527
:1026800028D421684FF4006008622068016821F4B2
:10269000D07101602068816821F001018160C4F877
:1026A0007480C4F87880C4F87C8000BF84F870908F
:1026B0000320BDE8F0872068016821F4D071016033
:1026C0002068816821F001018160C4F87480C4F839
:1026D0007880EBE72068C06936EA000004D000206B
:1026E000B842BDD00020E4E70120F9E7FEE7090782
:1026F000090E002804DB00F1E02080F80014704788
:1027000000F00F0000F1E02080F8141D704702E097
:1027100008C8121F08C1002AFAD17047704700206C
:1027200001E001C1121F002AFBD17047FDF78CFFA9
:10273000FFF75AFBFFF7F8F8FFF730F9FFF766F9F4
:10274000FFF7D4F800F00EF8FEE7014600208429D8
:1027500000D0C81C704710B500B9012000F01CFB68
:10276000002010BD10B500F03DFB002010BD7FB56E
:102770000D4604464169B0F9080081B1A16971B103
:10278000FFF7E3FFD4E905128DE80700D4E9001054
:102790002B46226900F03CFC039004B070BDFFF7AB
:1027A000D4FF03A9CDE90001208A2B4682B2D4E9E7
:1027B000001000F0FDFB012801D00020EDE7039898
:1027C000EBE700002DE9F041184C0F46054666691D
:1027D0002068001D00F01CFA38B9206890F82C1011
:1027E00001208840A1698143A161681C07D137B1EC
:1027F0002168BDE8F0410E48091D00F04DBA20687F
:102800003544B5424560216805D2A068BDE8F04175
:10281000091D00F029BA6068091D00F025FA206B37
:10282000854200D22563BDE8F08100001C00002035
:10283000AC0400202DE9F041054600F039FA2E4C99
:102840002069401C206120682C4F10B1E06940B322
:102850002DE025602069012829D1002606EB86009D
:1028600007EB800000F0F2F9761C072EF6D3234820
:102870008C3000F0EBF92148A03000F0E7F91F4858
:10288000B43000F0E3F91D48C83000F0DFF91B4810
:10289000DC3000F0DBF919488C3060601430A06047
:1028A00005E02068E96AC06A884200D82560E06ACD
:1028B000401CE062E96A0120A26988401043A061DF
:1028C00001EB810007EB8000291D00F0E5F900F025
:1028D0000FFAE06900280CD02068E96AC06A8842D3
:1028E00007D207494FF080500860BFF34F8FBFF306
:1028F0006F8FBDE8F08100001C000020D003002095
:1029000004ED00E010B5044690F8510058B10128DC
:102910000CD002280FD0502080F31188BFF34F8FC6
:10292000BFF36F8FFEE7206B00F0F6F92046BDE89D
:10293000104000F0F1B910BD0F4840F6B831420721
:1029400005D0C01D0C4A20F00700821A891A0B4AD4
:1029500000230144C2E900030839103A21F00701BD
:1029600011604B600B600B1AC0E9001393604FF0CD
:1029700000405360D0607047C00400206800002011
:10298000144E154CA6F1C8074FF08058DFF84C9054
:1029900012E000BF00F08CF9F068C568281D00F057
:1029A00037F92069401E2061E068401EE06000F0B9
:1029B0009FF92846FFF7A6FFE0680028EAD13868AB
:1029C0000128F9D9C9F80080BFF34F8FBFF36F8F8B
:1029D000F2E70000980400201C00002004ED00E055
:1029E0002DE9F0479A46DDE9098481466FF003033B
:1029F000206B03EB82021044089E20F00707780743
:102A000007D0502080F31188BFF34F8FBFF36F8F33
:102A1000FEE7002561B1002023180A5C83F834200A
:102A20000A5C12B1401C1028F6D384F8435001E030
:102A300084F83450072E00D30626E662C4E91165F7
:102A4000201D00F00EF904F1180000F00AF92461CD
:102A5000C6F107006462A061E56484F850505246F4
:102A60004946384600F0BEF82060B8F1000F01D0AA
:102A7000C8F80040BDE8F08730B5114900E01146C4
:102A80000A688242FBD34B685C18844203D14068D9
:102A900018444860084643681C18944209D1084C01
:102AA000103C2468A24209D052681A4442600A6865
:102AB00012680260814200D0086030BD0460F9E70E
:102AC0006800002006484168096829B14168C96862
:102AD000C9684968016370474FF0FF31FAE70000A9
:102AE0001C00002008484068401C4FF0500080F354
:102AF000118804D0BFF34F8FBFF36F8FFEE7BFF392
:102B00004F8FBFF36F8FFEE7700000202DE9F0417B
:102B10000546002700F09CF9314E306808B9FFF7F0
:102B20000BFFF06805424BD1C5B3083568070ED0DE
:102B300005F00700C0F108000544680707D05020E1
:102B400080F31188BFF34F8FBFF36F8FFEE72DB374
:102B50007068854234D82248103001460C6801E084
:102B600020460C466168A94202D221680029F7D1AB
:102B700031688C4224D0076821680160606808379A
:102B8000411B10290FD96019420708D0502080F34B
:102B90001188BFF34F8FBFF36F8FFEE710E04160E6
:102BA0006560FFF769FF61687068401A7060B2681D
:102BB000904200D2B060F06801430020C4E90001F7
:102BC00000F0B6FA780707D0502080F31188BFF3E1
:102BD0004F8FBFF36F8FFEE73846BDE8F0810000EE
:102BE0005800002010B5031F4FF080741C601B1F9D
:102BF00021F001011960191F044B0B6014390A60A0
:102C0000091F6FF0020244380A6010BDE52A00086F
:102C1000D0E9013201699A60D0E901235A604A681B
:102C2000824201D182684A60002202610868401E27
:102C30000860086870470000034B036003F154000C
:102C400008608020106070477C00002000F10801BF
:102C50004FF0FF32C0E90112C16001610021016043
:102C6000704700210161704730B50B685A1C02D0D3
:102C700000F1080202E0026904E022465468256877
:102C80009D42FAD953684B6099608A60516008612F
:102C90000168491C016030BD42684A6093688B60DE
:102CA00093685960916008610168491C0160704730
:102CB000502080F31188BFF34F8FBFF36F8F0A4905
:102CC0004868401C486001280CD10848006810F092
:102CD000FF0F07D0502080F31188BFF34F8FBFF351
:102CE0006F8FFEE7704700007000002004ED00E0E9
:102CF0000849486828B1401E486001D180F3118816
:102D00007047502080F31188BFF34F8FBFF36F8F50
:102D1000FEE700007000002070B5002827D0144D99
:102D2000A0F108046168E868014207D1502080F3EF
:102D30001188BFF34F8FBFF36F8FFEE722683AB160
:102D4000502080F31188BFF34F8FBFF36F8FFEE7E2
:102D50008143616000F07CF86068696808446860DD
:102D60002046FFF789FEBDE8704000F0E1B970BD74
:102D7000580000204FF0E0200021016181610549E9
:102D80004FF47A720968B1FBF2F1491E41610721E3
:102D9000016170471800002010B5020014D00F48E0
:102DA000806B38B1502080F31188BFF34F8FBFF391
:102DB0006F8FFEE700F04CF800211046FFF702FD90
:102DC00000F0B6F9002807D105494FF0805008609F
:102DD000BFF34F8FBFF36F8F10BD00001C000020AA
:102DE00004ED00E010B586B00024039405AA04A900
:102DF00003A80494FFF720FFDDE903010094CDE967
:102E0000011000230EA11048059A00F001F90F49A6
:102E10000028486311D0502080F31188BFF34F8FF2
:102E2000BFF36F8F4FF0FF3008630120C8614C6122
:102E300006B0BDE8104000F041B806B010BD00007B
:102E400049444C4500000000812900081C00002076
:102E50000248816B491C8163704700001C00002000
:102E60001448816B11B10121416270470021416218
:102E70008169B1FA81F1C1F11F0101EB81020E49B3
:102E800051F822306BB101EB820101F108034A686D
:102E900052684A609A4201D152684A60D168016022
:102EA0007047502080F31188BFF34F8FBFF36F8FAF
:102EB000FEE700001C000020D00300201CB53748AE
:102EC0000168374A914207D1502080F31188BFF33F
:102ED0004F8FBFF36F8FFEE700683149491E88426C
:102EE00007D1502080F31188BFF34F8FBFF36F8F4E
:102EF000FEE72C4908780190FF20087008788DF8CB
:102F000000009DF800009DF8002000F0F0009042C5
:102F100007D0502080F31188BFF34F8FBFF36F8F1E
:102F2000FEE79DF80000204B00F0500018700720CD
:102F3000986005E09DF8002052008DF80020401EAA
:102F40009DF800201206F5D49860032807D0502081
:102F500080F31188BFF34F8FBFF36F8FFEE74FF4FD
:102F600040709860019808700C482030016841F466
:102F700070010160016841F070410160FFF7FAFEE5
:102F800000205860FDF72EF90848016841F04041E3
:102F90000160FDF713F900201CBD000000ED00E00A
:102FA00071C20F4100E400E07000002034EF00E047
:102FB0002DE9FF5F8346DDE90E87994616468A466E
:102FC0009000FFF7A3FD05001CD05420FFF79EFDE5
:102FD000040014D00020256384F85100CDE902409C
:102FE000CDE900874B46324651465846FFF7F8FC7C
:102FF0002046FFF71FFC012004B000F006B8284669
:10300000FFF78AFE4FF0FF30F6E730BCBDE8C09F07
:10301000F0B585B0DDE90B640A9DA6B1DCB154279B
:1030200000972663022684F85160002604AFCDE99C
:103030000246CDE90057FFF7D3FC2046FFF7FAFB25
:10304000049805B0F0BD502080F31188BFF34F8F76
:10305000BFF36F8FFEE7502080F31188BFF34F8FCF
:10306000BFF36F8FFEE700002DE9F0412E4C0027E3
:10307000A06B40B1206A401C2062606A00B1012749
:103080003846BDE8F0816669761C666113D16068D8
:10309000006838B1502080F31188BFF34F8FBFF321
:1030A0006F8FFEE76068A1686160A060A06A401C45
:1030B000A062FFF707FD206BDFF87080864209D31E
:1030C0006068006880B16068C068C56868688642EA
:1030D0000DD220632068C06A00EB800158F82100FF
:1030E0000128CAD90127C8E74FF0FF30F1E7281DB2
:1030F000FFF78EFDA86A18B105F11800FFF788FDEB
:10310000E86A0121A26981401143A16100EB8001BD
:1031100008EB8100291DFFF7BFFDE86A2168C96A35
:103120008842CDD30127CBE71C000020D00300202C
:103130002DE9F0472C4D00242746A86B38B1FFF746
:10314000B7FDA86B401EA863A86B40B146E05020B5
:1031500080F31188BFF34F8FBFF36F8FFEE72969AC
:10316000224E0120D1B3A6F1B40980463068E8B1FF
:10317000F068C46804F11800FFF74AFD201DFFF74E
:1031800047FDE06AAA6908FA00F11143A96100EB62
:10319000800109EB8100211DFFF77EFDE06A2968AF
:1031A000C96A8842E2D3C5F82480DFE70CB1FFF793
:1031B00089FC2C6A44B14646FFF756FF00B16E62A7
:1031C000641EF9D100202862686A38B108490127D5
:1031D00038070860BFF34F8FBFF36F8FFFF788FD8D
:1031E0003846BDE8F08700001C0000208404002061
:1031F00004ED00E074320008FD1C0008000000002F
:10320000000000008000000000000000000000003E
:1032100080320008691D0008000000000000000066
:10322000800000000000000000000000000000001E
:10323000000000000102030406070809A08601003F
:10324000400D0300801A060000350C0040420F00BC
:1032500080841E0000093D0000127A000024F40062
:1032600000366E010048E801006CDC02000000003E
:10327000010203046272656174685F6C656400003A
:10328000726561646B657900A83200080000002057
:103290007C0000000E270008243300087C0000207A
:1032A000FC1300001E2700080000000000000000C2
:1032B00000000000100000000100000000000000FD
:1032C00000093D00000000000000000000000000B8
:1032D00000000000000000000000000000000000EE
:1032E00000000000000000000000000000000000DE
:1032F00000000000000000000000000000000000CE
:1033000000000000000000000000000000000000BD
:10331000000000000000000000000000AAAAAAAA05
:0433200000000000A9
:040000050800018965
:00000001FF
