:020000040800F2
:10000000380500209D0100081F1D0008011C000884
:100010001D1D00084F08000881270008000000008F
:10002000000000000000000000000000D51F0008D4
:100030005108000800000000211D0008F71F0008FB
:10004000B7010008B7010008B7010008B7010008B0
:10005000B7010008B7010008B7010008B7010008A0
:10006000B7010008B7010008B7010008B701000890
:10007000B7010008B7010008B7010008B701000880
:10008000B7010008B7010008B7010008B701000870
:10009000B7010008B7010008B7010008B701000860
:1000A000B7010008B7010008B7010008B701000850
:1000B000B7010008B7010008B7010008B701000840
:1000C000B7010008B7010008B7010008B701000830
:1000D000B701000865270008B7010008B70100084C
:1000E000B7010008B7010008B7010008B701000810
:1000F000B7010008B7010008B7010008B701000800
:10010000B7010008B7010008B7010008B7010008EF
:10011000B7010008B7010008B7010008B7010008DF
:10012000B7010008B7010008B7010008B7010008CF
:10013000B7010008B7010008B7010008B7010008BF
:10014000B7010008B7010008B7010008B7010008AF
:10015000B7010008B7010008B7010008B70100089F
:10016000B7010008B7010008B7010008B70100088F
:10017000B7010008B7010008B7010008000000003F
:10018000B7010008B7010008DFF80CD000F0FCFA56
:1001900000480047353800083805002006488047E9
:1001A00006480047FEE7FEE7FEE7FEE7FEE7FEE75C
:1001B000FEE7FEE7FEE7FEE76D2000088901000884
:1001C0002DE9F05F0546002092469B46884606468C
:1001D000814640241BE0284641464746224600F01F
:1001E000B5F953465A46C01A914110D311461846E4
:1001F000224600F09CF92D1A67EB01084F46224673
:100200000120002100F093F917EB00094E41201E58
:10021000A4F10104DFDC484631462A46434600F09B
:1002200000B830BCBDE8C09FD2B201E000F8012B9D
:10023000491EFBD270470022F6E710B513460A4666
:1002400004461946FFF7F0FF204610BD2DE9FE4F8A
:10025000804681EA0300C00F0C46009021F0004167
:1002600023F00045B8EB0200A94105D240462146E3
:1002700090461C460B46024623F00040104347D0F0
:10028000270DC7F30A00C3F30A510290401A0190E8
:1002900040286BDAC3F3130040F4801B00989246A9
:1002A00020B10023D2EB030A63EB0B0B01985946F4
:1002B000C0F14002504600F03AF906460D4650465D
:1002C0005946019A00F052F910EB080061410024F0
:1002D00087EA115284EAE7731A4340D0009A62B366
:1002E000019A012A4FEA075215DC001B61EB02015B
:1002F0004FF0004202EA0752CDE90042001C41F5EE
:10030000801132462B4600F052F903B000F045B898
:1003100040462146F9E7001B61EB0201001C41F554
:10032000801300185B412018A2F5001747EB03016A
:1003300040EAD570B6196D4111E06D084FEA3606F6
:1003400045EAC0754FEA0752001B61EB0201001C31
:1003500041F5801149084FEA3000001951413246F9
:100360002B4603B000F01CB800F012B9009801222F
:1003700040000023D0EB020263EBE07300982146BB
:100380004FEAE074B8EB000061EB0401E9E783F0A9
:1003900000435BE781F0004158E730BCBDE8C08F07
:1003A00030BCBDE8C04FFFF7DFBF2DE9FE4F81EA4B
:1003B000030404F0004421F0004100944FF0000BCE
:1003C00023F0004350EA01045ED052EA03045BD0FC
:1003D000C3F30A54C1F30A552C44A4F2F334019434
:1003E000A0FB0254C1F3130141F48011C3F31303C2
:1003F00043F4801301FB024400FB034E840A970A76
:1004000044EA815447EA8357A4FB076802958D0AA2
:1004100005FB07854FEA932C04FB0C542705029D2E
:100420004FEA065847EA1637B5EB08056EEB070C9E
:10043000870E920E47EA811742EA8312A7FB020158
:10044000B6EB0B0164EB00042B0D43EA0C335E1892
:1004500044EB1C50DA465146E7FB0201C5F3130496
:100460004FEA0B3343EA14534FEA0432019C43EA48
:100470000603A4F10C040294009CCDE900B400F042
:1004800096F803B000F003B800200146F9E730BC4D
:10049000BDE8C08F0EB5C10F80EAE0700844CA07FE
:1004A000002140F233438DE80E000A460B4600F06F
:1004B0007EF803B000BD0EB540F233410291002139
:1004C000CDE900110A460B4600F071F803B000BDFB
:1004D000C1F30A5210B5C1F3130140F2FF3341F4E6
:1004E00080119A4201DA002010BD40F233439A4253
:1004F000A2F2334203DC524200F028F810BD9040D3
:1005000010BD30B50B46014600202022012409E031
:1005100021FA02F59D4205D303FA02F5491B04FABC
:1005200002F52844151EA2F10102F1DC30BD202A9B
:1005300004DB203A00FA02F1002070479140C2F13A
:10054000200320FA03F3194390407047202A04DB6C
:10055000203A21FA02F00021704721FA02F3D0403C
:10056000C2F120029140084319467047202A06DB59
:10057000CB17203A41FA02F043EAE07306E041FA71
:1005800002F3D040C2F1200291400843194670475F
:1005900010B5141E73F1000408DA401C41F100018B
:1005A00092185B411A4301D120F0010010BD2DE9E2
:1005B000F04D92469B4611B1B1FA81F202E0B0FAD9
:1005C00080F220329046FFF7B2FF04460F4640EA21
:1005D0000A0041EA0B0153465A46084313D011461C
:1005E00053EA010019D0C8F140025046FFF7AEFFB0
:1005F00005460E46504659464246FFF798FF0843C7
:1006000005D0012004E020463946BDE8F08D0020E9
:10061000054346EAE0762C4337430A986305E40A2B
:10062000A0EB08000022FD0A44EA47540A3002D534
:1006300000200146E9E7010510196941DDE9084597
:1006400000196941BDE8F04DA2E72DE9F04D81EABE
:10065000030404F0004B21F0004514464FF0000A5B
:1006600023F0004150EA050220D054EA01021DD0D7
:10067000C5F30A570246C5F31303C1F31300C1F3D0
:100680000A5640F4801543F48013A7EB0608101BAC
:10069000D64608F2FD3873EB050002D308F10108D5
:1006A00001E092185B41B8F1000F03DA0020014627
:1006B000BDE8F08D00204FF48011064684460EE020
:1006C000171B73EB050705D3121B63EB05030643EA
:1006D0004CEA010C49084FEA300092185B4150EA9D
:1006E0000107EDD152EA030012D082EA040083EA46
:1006F0000501084305D0101BAB4106D2012200239F
:1007000006E000224FF0004302E06FF001025310B8
:100710001AEB06004CEB085110EB0A0041EB0B0101
:10072000BDE8F04DFFF734BF70B521F0004303433F
:100730000CD0C1F30A550024D5EB040564EB040387
:10074000D617AD1AB34102DB0020014670BD201858
:1007500041EB025170BD000030B5041E71F1000480
:1007600004DB4FF00044404264EB0101141E73F1BE
:10077000000405DB1C464FF00043524263EB0403C8
:10078000994208BF904230BD064C074D06E0E06834
:1007900040F0010394E8070098471034AC42F6D3C8
:1007A000FFF7F6FCB0390008D03900082DE9F04D0C
:1007B00000231A461B1A8A4103DB00200146BDE8CC
:1007C000F08DC1F30A52C1F3130141F480154FF0CB
:1007D000000BD10702D100186D41521E00270446BC
:1007E00040F2FF11384601EB620A3E46804602465F
:1007F00000204FF48011FFF7A9FEC2197141BB1808
:1008000046EB0100B4EB030C75EB000C04D3E41AC7
:1008100065EB000517460E46241908F101006D41ED
:1008200080463428E3DDF91946EB0600091BA84190
:1008300003D24FF0FF32134601E0002213461BEBB8
:10084000070046EB0A51BDE8F04DFFF7A1BEFEE7F9
:100850007047704710B590F825100024022903D086
:100860000421C16301241AE001680A6822F00E0223
:100870000A6001680A6822F001020A6090F84410D8
:10088000036C01F01C02012101FA02F25A6080F8A7
:100890002510002180F82410816B01B18847204683
:1008A00010BD000070B5044600F046F90546601C16
:1008B00002D004484068044400F03EF9401BA042C6
:1008C000FAD370BD000000202DE9F04FDFF834921C
:1008D000002309F1040A012403250AF1040B87B05F
:1008E0000F270BF1040E04E104FA03F632407CD02A
:1008F000D1F804C0BCF1010F08D0BCF1020F05D043
:10090000BCF1110F02D0BCF1120F29D1D0F808C0F0
:10091000CDF800C04FEA430C05FA0CF8CDF80CC036
:10092000DDF800C02CEA080CCDF800C0D1F80C802E
:10093000DDF80CC008FA0CF8DDF800C048EA0C0835
:10094000C0F80880D0F8048091F804C028EA0608AE
:10095000CCF3001C0CFA03FC4CEA080CC0F804C0F1
:10096000D1F804806FEA080C5FEA8C7C09D1D0F8DA
:100970002CC02CEA060CC8F3C0069E4046EA0C06C2
:10098000C662D0F80CC04FEA430805FA08F62CEA14
:10099000060CCDF8148002968E6806FA08F646EA30
:1009A0000C06C6604E68022E01D0122E15D1DE084C
:1009B00000EB86060396366A4FEA437C4FEADC6812
:1009C00007FA08FC26EA0C06D1F810C00CFA08FC5D
:1009D0004CEA060C039EC6F820C00668DDF808C085
:1009E00026EA0C0691F804C000E081E0DDF81480EE
:1009F0000CF0030C0CFA08FC4CEA060CC0F800C022
:100A00004E68F60074D5404ED6F860C04CF0010C2C
:100A1000C6F860C0366E23F0030C06F0010600969F
:100A20003A4E66440296D6F808C09E074FEA1678FA
:100A300007FA08F62CEA060CB0F1904F04D0344EB9
:100A4000B04203D101261BE0002619E0314EB0422E
:100A500001D1022614E0304EB04201D103260FE04E
:100A60002E4EB04201D104260AE02D4EB04201D1F3
:100A7000052605E02B4EB04201D1062600E00726F0
:100A800006FA08F646EA0C06DDF808C0CCF808605D
:100A9000D9F80060CC46D1F8048096435FEAC838A4
:100AA00000D51643CCF80060DAF80060D446D1F8DF
:100AB000048096435FEA883800D51643CCF800607E
:100AC000DBF80060DC46D1F8048096435FEAC82872
:100AD00000D51643CCF80060DEF80060F446D1F88B
:100AE000048096435FEA882800D51643CCF800605E
:100AF0005B1C0A6832FA03F67FF4F6AE07B000F02A
:100B000013B8000000040140001002400000014042
:100B10000004004800080048000C0048001000488D
:100B2000001400480018004830BCBDE8C08F0AB16E
:100B3000816170478162704701488068704700009A
:100B400000000020024881684268114481607047BB
:100B500000000020094810B50168002441F48071AC
:100B60000160032000F072F8002000F009F808B1DD
:100B7000012401E000F026F8204610BD00200240CC
:100B800070B50E4E05460024706898B14FF47A7126
:100B9000B1FBF0F00A490968B1FBF0F000F016FE75
:100BA00040B9102D06D200222946501E00F02EF822
:100BB000356000E00124204670BD000000000020E8
:100BC0000C000020094808B5016E41F001010166E2
:100BD000016E01F001010091816D41F0805181654C
:100BE000806D00F08050009008BD000000100240B1
:100BF000002809DB00F01F0201219140400980001C
:100C000000F1E020C0F8001170470000F0B40E4B76
:100C10001B680C46C3F30223C3F10705042D00D95A
:100C20000425191D072901D2002300E0DB1E01263F
:100C300006FA05F1491E214099409E40761E164055
:100C40003143F0BC01F0C6BD0CED00E0064900F0F8
:100C5000070208684FF6FF03184040EA0220034AE3
:100C600010430860704700000CED00E00000FA053A
:100C70001649B0F5007F0868C0F3412009D002286A
:100C800005D0086820F4C06040F48060086000204F
:100C900070470128FBD0086820F4C06040F4007061
:100CA00008600B483222006850430A4AB0FBF2F059
:100CB000401C00E0401E4A69520501D50028F9D1C8
:100CC00048694005E3D503207047000000700040EC
:100CD0000C00002040420F000248006800F4C06091
:100CE00070470000007000402DE9F84F04460027CF
:100CF0000088E54D3E46010504F1200B1DD5606ED0
:100D000078B1B0F5800F11D0B0F5000F04D0B0F578
:100D1000400F22D001270FE0E86840F48030E860FF
:100D20001BE00021201D00F0FDFF03E000215846DC
:100D300001F08EF8070010D03E462088C00426D56A
:100D4000A06EC0B1B0F1807F1AD0B0F1007F0DD09D
:100D5000B0F1407F19D0012718E0D5F88800616E06
:100D600020F440000843C5F88800E6E7E86840F44E
:100D70008030E86009E00021201D00F0D3FF03E08F
:100D80000021584601F064F80746F7B13E46206856
:100D900080033AD5A86D4FF00008C00009D4A86DB3
:100DA00040F08050A865A86D4FF0010800F0805019
:100DB0000090DFF8D8A2DAF8001041F48071CAF888
:100DC0000010FFF7B9FE814610E0D5F88800A16E4B
:100DD00020F040700843C5F88800D8E7FFF7ACFE64
:100DE000A0EB0900022801D9032705E0DAF800008A
:100DF000C005F3D5002F7CD04FEA0706B8F1000FED
:100E000003D0A86D20F08050A8652078C00707D0D7
:100E1000D5F88800A16B20F003000843C5F88800CE
:100E20002078800707D5D5F88800E16B20F00C000A
:100E30000843C5F888002078400707D5D5F8880012
:100E4000216C20F030000843C5F8880020780007A6
:100E500007D5D5F88800616C20F0C0000843C5F8BC
:100E600088002078C00607D5D5F88800A16C20F44A
:100E700040700843C5F888002078800607D5D5F86B
:100E80008800E16C20F440600843C5F888002088A1
:100E9000800507D5D5F88800E16D20F4402008438F
:100EA000C5F888002088400507D5D5F88800216E50
:100EB00020F440100843C5F888002078400607D584
:100EC000D5F88800216D20F440500843C5F888000B
:100ED0002078000607D5D5F88800616D20F44040E1
:100EE0000843C5F888002088C00509D5D5F88800D2
:100EF00000E01CE0A16D20F440300843C5F88800F4
:100F000020884FF0006780044FF080684FD5D5F8F7
:100F10008800E16E20F040600843C5F88800E06E6C
:100F2000B8423CD1E86840F48010E8603FE0D5F872
:100F3000900010F4407015D0D4F88410814211D084
:100F4000D5F89000D5F8901020F4407041F480312D
:100F5000C5F89010D5F8901021F48031C5F89010A4
:100F6000C5F89000C00710D0FFF7E6FD074641F234
:100F7000883906E0FFF7E0FDC11B494501D903268A
:100F80003CE7D5F890008007F4D5D5F89000D4F868
:100F9000841020F440700843C5F890002EE74045C7
:100FA00005D10121201D00F0BDFE00B106462068DC
:100FB000000317D5D5F88800216F20F04060084362
:100FC000C5F88800206FB84204D1E86840F480106A
:100FD000E86007E0404505D10121201D00F0A2FE98
:100FE00000B106462068400317D5D5F88800616F28
:100FF00020F040600843C5F88800606FB84204D113
:10100000E86840F48010E86007E0404505D1012120
:10101000201D00F087FE00B10646208840041AD546
:10102000D5F88800A16F20F040500843C5F888002B
:10103000A06FB0F1805F03D0B0F1005F05D00AE08F
:101040000221201D00F06EFE03E00221584600F050
:10105000FFFE00B106462088000407D5D5F88800B9
:10106000E16F20F080400843C5F888002068C00385
:1010700007D555F8880FD4F8801020F000400843B9
:101080002860304600F004B80010024000700040B4
:1010900018BCBDE8E08F00002DE9F0470F460500C1
:1010A00058D0404E306800F00700B84209D230688E
:1010B00020F0070038433060306800F00700B84285
:1010C00048D12878384CC0072CD06868032811D044
:1010D000022812D0216898B1490500293ADAA1689E
:1010E00021F003010143A160FFF726FD804641F294
:1010F000883910E021688901EFE721688903ECE76E
:101100008907EAE7FFF718FDA0EB0801494502D976
:101110000320BDE8F087A068696800F00C00B0EB20
:10112000810FEFD12878800705D5A068A96820F045
:10113000F0000843A060306800F00700B8420BD907
:10114000306820F0070038433060306800F0070056
:10115000B84201D00120DCE72878400705D5A06817
:10116000E96820F4E0600843A0602878000706D50D
:10117000A068296920F4605040EAC100A06000F036
:101180003FF8A168094AC1F30311515C01F01F0146
:10119000C8400749086007480068BDE8F047FFF706
:1011A000EFBC00000020024000100240D4380008CC
:1011B0000C000020000000200548064900688968EE
:1011C000054AC1F30221515C01F01F01C84070477C
:1011D0000C000020001002401439000805480649A0
:1011E00000688968054AC1F3C221515C01F01F0102
:1011F000C84070470C00002000100240143900085D
:1012000070B52549002318468A68CC6812F00C0294
:1012100004F00306214C4FEA640509D00C2A05D0DE
:10122000042A32D0082A00D1284670BD012E10D1E0
:101230000B681B0704D4D1F89430C3F3032302E0F6
:101240000B68C3F30313164E56F82330DAB10C2A99
:10125000EBD1C86800F00300022818D0032818D08A
:101260001846CA68CB68C2F30212C3F3062343438D
:10127000521CB3FBF2F2C868C0F34160401C40004E
:10128000B2FBF0F070BD184670BD204670BD204620
:10129000E7E72846E5E70000001002400024F400DC
:1012A000E43800082DE9F84304006FD0FE4DA8682B
:1012B00000F00C06E86800F003072078C00664D54B
:1012C00076B10C2E01D1012F0AD0A0690028286820
:1012D0007AD040F001002860FFF72EFC80465DE0E8
:1012E0002868800702D5A0690028DED0216A286816
:1012F000000703D5286800F0F00004E0D5F894005A
:10130000F02202EA1010814216D9084600F024FEAD
:1013100000283BD1286840F0080028602868216A2E
:1013200020F0F000084328606868E16920F47F40FD
:1013300040EA0120686016E0286840F00800286054
:101340002868216A20F0F000084328606868E16995
:1013500020F47F4040EA0120686026B9206A00F04E
:10136000FBFD0028D5D1FFF74BFFA968CF4AC1F399
:101370000311515C01F01F01C840CD490860CD4800
:101380000068FFF7FDFB00287ED12EE0CAE000BF19
:10139000FFF7D2FBA0EB0800022876D82868800768
:1013A000F6D5286840F0080028602868216A20F0F7
:1013B000F000084328606868E16920F47F4040EA53
:1013C0000120686011E0FFE720F001002860FFF7CE
:1013D000B3FB804606E000BFFFF7AEFBA0EB0800C2
:1013E0000228DAD828688007F6D42078C00740D0D1
:1013F000082E18D00C2E01D1032F14D06068B0F540
:10140000803F17D0B0F5A02F286817D020F4803087
:101410002860286820F4802028606068E0B1FFF729
:101420008BFB804614E02868800322D56068002882
:1014300078D01EE0286840F48030EDE740F480204A
:101440002860F7E7FFF778FBA0EB08006428A4D832
:1014500028688003F6D50CE0FFF76EFB804605E0B8
:10146000FFF76AFBA0EB0800642896D82868800381
:10147000F6D4207880073BD5042E11D00C2E01D154
:10148000022F0DD0E06801E092E1F1E00028286829
:101490001ED040F480702860FFF74EFB07460CE03A
:1014A000286840050CD5E0680028C1D008E000BFDE
:1014B000FFF742FBC01B022893D828684005F7D5E8
:1014C0006868217C20F0F85040EA016068600FE015
:1014D00020F480702860FFF72FFB074605E000BF6F
:1014E000FFF72AFBC01B0228B1D828684005F7D4B3
:1014F0002078000729D560690028D5F8940012D01B
:1015000040F00100C5F89400FFF716FB074604E021
:10151000FFF712FBC01B022899D8D5F8940080076A
:10152000F6D512E000E120F00100C5F89400FFF7C5
:1015300003FB074605E000BFFFF7FEFAC01B0228C9
:1015400085D8D5F894008007F6D42078400766D572
:10155000A86D0027C00008D4A86D40F08050A86591
:10156000A86D012700F08050009053480168C9051C
:1015700012D40168814641F480710160FFF7DCFA02
:10158000804605E0FFF7D8FAA0EB080002286FD8E4
:10159000D9F80000C005F5D5A068012816D00528A7
:1015A000D5F8900017D020F00100C5F89000D5F8CC
:1015B000900020F0040000BFC5F89000A06841F240
:1015C0008839C0B1FFF7B8FA80460FE0D5F890002F
:1015D00040F00100F0E740F00400C5F89000F5E7A6
:1015E000FFF7AAFAA0EB0801494541D8D5F89000C9
:1015F0008007F5D50EE0FFF79FFA804606E000BFB2
:10160000FFF79AFAA0EB0801494531D8D5F89000C8
:101610008007F5D41FB1A86D20F08050A865A06A9E
:1016200038B302280AD00C2E7ED0286820F08070B3
:101630002860286810F0205F77D0AAE0E868E26AA6
:1016400000F0030191422BD1216B00F070020901DF
:101650001039914224D1626B00F4FE41B1EB022FAC
:101660001ED1A26B00F40031072A03D0012202E050
:101670009DE089E00022914212D1A18F00F4C002C6
:1016800049084905A1F50011914209D194F840108B
:1016900000F0C06049084906A1F1007181425CD0A8
:1016A0000C2E41D0286809E000100240D438000810
:1016B0000C000020000000200070004040017ED49B
:1016C0002868C0007BD4286820F080702860FFF76D
:1016D00033FA064605E000BFFFF72EFA801B02280A
:1016E00065D828688001F7D4D4E90B016FF00F02A8
:1016F00002EB01110843A18F5204490802EB41514A
:10170000626B41EA0221084394F840104FF07E4298
:10171000490802EB41610843A16B090940EA4140D5
:10172000E968284A114001E049E02EE00843E860FA
:10173000286840F080702860E86840F08070E860B9
:10174000FFF7FAF9044604E0FFF7F6F9001B022858
:101750002DD828688001F7D52FE0286880012CD487
:10176000286840F080702860E86840F08070E86089
:10177000FFF7E2F9044604E0FFF7DEF9001B022858
:1017800015D828688001F7D517E0E86820F0030035
:10179000E860E8680C490840E860FFF7CDF90446C6
:1017A00008E000BFFFF7C8F9001B022802D9032098
:1017B000BDE8F88328688001F4D40020F8E7012010
:1017C000F6E700008C809DF9FFFFEEFE10B5401E8D
:1017D000B0F1807F01D3012010BD4FF0E0246061A3
:1017E0000F21601700F0F6FF0020A06107202061A4
:1017F000002010BD704770472DE9F0410268044693
:10180000D0691168936840F60F0528424FF0000533
:1018100005D186067BD58E0679D5216E88E003F04A
:10182000010601F49077374371D0C70707D0CF0581
:1018300005D501271762E26F42F00102E2678207D5
:1018400008D5DA0706D0276802223A62E26F42F032
:101850000402E267420708D5DA0706D023680422AB
:101860001A62E26F42F00202E26702070AD501F053
:101870002002324306D0236808221A62E26F42F047
:101880000802E267020509D54A0107D523684FF42B
:1018900000621A62E26F42F02002E267E26F002A01
:1018A0002ED0800605D5880603D5216E09B12046C5
:1018B0008847E06F21688968490602D410F0280F34
:1018C00020D0204600F08EFC20688168490614D59F
:1018D000816821F040018160E06E70B11D49816333
:1018E000E06EFEF7B7FF00280AD0E06E816B00E0E3
:1018F0002046BDE8F041084709E02046FFF77BFF9E
:10190000BDE8F0812046FFF776FFE567F8E7C602FD
:1019100009D55B0207D54FF4801010622046BDE860
:10192000F041FFF767BF030605D50B0603D5616ECF
:101930000029DDD1E4E74006E2D54806E0D511688C
:10194000204621F04001116020216167656600F0AA
:1019500056F9D5E7D121000810B5040002D0606F18
:1019600010B107E0012010BD002084F8700020466F
:1019700000F026F8242060672068016821F001014A
:101980000160204600F052FD0128ECD0606A10B1E1
:10199000204600F08DFB2068416821F490414160B1
:1019A0002068816821F02A0181602068016841F087
:1019B000010101602046BDE8104000F0DDBB0000E1
:1019C000F0B587B0044614216846FEF734FC254F75
:1019D0002668002224490223032407254FF0904063
:1019E000BE4222D10E6E46F480460E660E6E06F49E
:1019F00080460596CE6C46F00106CE64C96C02AEF8
:101A000001F0010105916102CDE9001386E834007F
:101A10006946FEF759FF002211462520FFF7F6F828
:101A20002520FFF7E5F807B0F0BD104FBE42FAD110
:101A30008E6D46F400368E658E6D06F40036059682
:101A4000CE6C46F00106CE64C96C02AE01F0010115
:101A500005910C21CDE9001386E834006946FEF7B4
:101A600033FFE0E70038014000100240004400402E
:101A700030B5836F202B4BD1B1B1AAB190F8703043
:101A8000012B45D0012380F870304165A0F8582023
:101A9000A0F85A20002101661D038268FF23AA4294
:101AA00007D1026912B125E0012030BD40F2FF12DA
:101AB00026E07F24E2B1B2F1805F1ED0A0F85C1076
:101AC000C167222282670268936843F00103936032
:101AD0008268AA4201D10269C2B10E4A026680F848
:101AE00070100068016841F490710160002030BD01
:101AF000026942B9A0F85C30E2E702691AB13F22FC
:101B0000A0F85C20DCE7A0F85C40D9E7024AE5E7F2
:101B1000022030BDD32300087923000810B50068E7
:101B20000649884203D114210548FEF784FBBDE82D
:101B30001040142202490348FFF79ABF00380140C1
:101B400018000020380000202DE9F8430446406FBB
:101B50001F4616460D4620284FD1CDB1C6B194F888
:101B60007000012849D0012084F870004FF000086F
:101B7000C4F87C8021206067FEF7DEFFA4F8506087
:101B80008146A4F85260A068B0F5805F03D004E0FD
:101B90000120BDE8F883206928B12E465FF00005DA
:101BA00084F8708010E00026FAE78021204600F0DB
:101BB00087FDB8B9C6B116F8010B21680885B4F8DD
:101BC0005200401EA4F85200B4F852004B464FF0A9
:101BD000000200970028E8D14FF04001204600F0B5
:101BE0006FFD30B10320D4E735F8020BC0F30800D5
:101BF000E3E7202060670020CBE70220C9E77047B9
:101C0000FEE7000030B587B014216846FEF713FBED
:101C10001F48C16C41F00401C164C16C01F00401B2
:101C20000591C16C41F08001C164C16C01F080017B
:101C30000591C16C41F00101C164C16C01F0010169
:101C40000591C16C41F00201C164C06C4FF0904538
:101C500000F002000590002220212846FEF767FFD1
:101C60004FF4005000900B480024CDE90104694670
:101C70000948FEF729FE202000900120CDE901044B
:101C8000694628460394FEF71FFE07B030BD0000EA
:101C900000100240000021100008004810B50F4C51
:101CA0000D480C2120604FF4E13060600020A060FE
:101CB000E060C4E90401A061E06120626062204646
:101CC000FFF74AFE08B1FEF7C4FD2068016841F045
:101CD0001001016010BD00000038014038000020F4
:101CE0000D4810B50B4901604FF4E131416000210E
:101CF00081600C22C160C0E904128161C16101628E
:101D00004162FFF729FE002803D0BDE81040FEF72E
:101D1000A0BD10BD00440040B8000020FEE77047A1
:101D2000704700002DE9F041444C05468846E068C4
:101D30000026810728680DD0E16801F00301814287
:101D400016D1A8B1E0686968C0F30210401C88424F
:101D50000ED120E0012804D0022805D0032807D1A5
:101D600008E02168890701E021684905002907DBAF
:101D700001265FE02168890302D421684903F5E761
:101D8000E1686A686FF00F0321F0730103EB021240
:101D900011430143E160206820F080602060FEF77D
:101DA000CBFE074605E000BFFEF7C6FEC01B0228BB
:101DB00037D820680001F7D4B8F1000F18D0B8F177
:101DC000010F1ED0287D4FF07E41400801EB40609E
:101DD000A96840EA01202169194A1140084320619D
:101DE000206840F080602060FEF7A6FE07461AE0FB
:101DF000A868E9680002090940EA41402169114ADE
:101E0000EBE7288A1049400801EB4050A96840EAF6
:101E1000012021690D4AE0E7FEF78EFEC01B022873
:101E200001D9032606E020680001F5D52069A969DB
:101E3000084320613046BDE8F081000000100240F8
:101E4000FF80FFF9FF80FDFF0000E0FFFF809FFFA4
:101E50002DE9F0413D4C06468846E06800258107A3
:101E600030680DD0E16801F00301814216D1A8B1BC
:101E7000E0687168C0F30210401C88420ED120E077
:101E8000012804D0022805D0032807D108E02168E2
:101E9000890701E021684905002907DB012551E098
:101EA0002168890302D421684903F5E7E168726873
:101EB0006FF00F0321F0730103EB02121143014392
:101EC000E160206820F080502060FEF735FE074674
:101ED00005E000BFFEF730FEC01B022829D82068AD
:101EE0008000F7D4B8F1000F15D0307C4FF07E4160
:101EF000400801EB4060B16840EA01206169144A82
:101F0000114008436061206840F080502060FEF777
:101F100013FE07460FE0B068F1680002090940EAC5
:101F2000414061690B4AEBE7FEF706FEC01B022841
:101F300001D9032506E020688000F5D56069716944
:101F4000084360612846BDE8F081000000100240AF
:101F5000FF80FFF9FF80FDFFF8B51C4D0646002409
:101F6000A86DC00002D5FEF7B7FE0DE0A86D40F0E9
:101F70008050A865A86D00F080500090FEF7ACFE80
:101F8000A96D21F08051A965B0F5007F04D0802EA5
:101F900007D94FF003040AE0802E08D9A02E01D8FB
:101FA00004E001D1022402E0702E00D1012408488F
:101FB000016821F0070121430160006800F007007B
:101FC000A04201D00120F8BD0020F8BD0010024061
:101FD0000020024070470246002001E0401CC0B2D1
:101FE00011184978532905D0412903D0422901D03D
:101FF0002A29F3D17047FEF7A5BD30B5B9B0442109
:1020000022A8FEF718F9142133A8FEF714F9882145
:102010006846FEF710F90220C10125911021229097
:1020200026912C900121CDE92D010A212F91072124
:10203000CDE93010329022A8FFF734F900240325AF
:102040000F20CDE9345433903694042133A83794CB
:10205000FFF722F800950E9468460F94FEF744FEB1
:102060004FF40070FEF704FE39B030BD0D48016832
:1020700041F4700101600C48016841F00101016008
:10208000002181600268094B1A4002608214C2601C
:10209000026822F48022026081610249C003803913
:1020A0000860704788ED00E000100240FFFFF6EA8C
:1020B00090F82410C90706D001684A68836A22F4A0
:1020C00000321A434A6090F82410890706D5016847
:1020D0004A68C36A22F480321A434A6090F8241096
:1020E000490706D501684A68036B22F480221A4327
:1020F0004A6090F82410090706D501684A68436BC6
:1021000022F400421A434A6090F82410C90606D50A
:1021100001688A68836B22F480521A438A6090F8BF
:102120002410890606D501688A68C36B22F4005220
:102130001A438A6090F82410490611D501684A684C
:10214000036C22F480121A434A60016CB1F5801FBF
:1021500006D101684A68436C22F4C0021A434A60FF
:1021600090F82410090606D501684A68806C22F4AC
:10217000002202434A607047F8B500260446C6674D
:10218000FEF7DAFC0546206800686FF07E4700071E
:1021900008D52B4600224FF400112046009700F08E
:1021A0008FFA60B92068006840070AD52B460022E4
:1021B0004FF480012046009700F082FA08B1032016
:1021C000F8BD20206067A06784F870600020F8BD2B
:1021D00010B5806A0021A0F85A10A0F85210FFF73D
:1021E0000AFB10BD01680A6822F490720A60016857
:1021F0008A6822F001028A6020218167002101663D
:10220000704700002DE9F0414F4B01462DED048B46
:1022100003F11404002020706060A0600D6810229B
:102220002A621A464A65A1F85A0008684749884256
:102230007AD1187800287ED01846FFF7CCFE0344E8
:1022400013F8010B20701846FFF7C5FE0746DE198C
:1022500000259FED3F9B761C26E02846FEF72BF9D4
:1022600041EC110BB0EE490AF0EE690A00F0C4FA35
:10227000701BB0EE408A10F8010CF0EE608A303826
:10228000FEF708F953EC182BFEF78FF841EC180B0A
:102290006068FEF710F953EC182BFDF7D7FFFEF737
:1022A00017F96D1CEDB26060BD42D6D33046FFF722
:1022B00092FE07463E440025761C26E02846FEF79F
:1022C000FAF841EC110BB0EE490AF0EE690A00F0A1
:1022D00093FA701BB0EE408A10F8010CF0EE608AA1
:1022E0003038FEF7D7F853EC182BFEF75EF841ECC8
:1022F000180BA068FEF7DFF853EC182BFDF7A6FFCC
:10230000FEF7E6F86D1CEDB2A060BD42D6D3D4E96D
:102310000123217810A000F035FA21784FF0904089
:10232000302902D0312902D005E0002200E001224C
:102330002021FEF7FCFBBDEC048B1421BDE8F0412D
:102340000148FDF778BF0000180000200038014068
:1023500000000000000024405374617475733A2536
:1023600063204E554D5F413A2564204E554D5F42E6
:102370003A25640D0A00000010B5B0F85C20836FA8
:102380000168222B04D0088B40F00800088310BDA0
:10239000898C436D11401980416D891C4165B0F8ED
:1023A0005A10491EA0F85A10B0F85A100029EED160
:1023B00001680A6822F490720A6001688A6822F053
:1023C00001028A602021816700210166FFF7A6FBD8
:1023D00010BD10B5B0F85C20836F0168222B04D0CB
:1023E000088B40F00800088310BD898C1140426DB5
:1023F0001170416D491C4165B0F85A10491EA0F892
:102400005A10B0F85A100029EED101680A6822F477
:1024100090720A6001688A6822F001028A602021B5
:10242000816700210166FFF779FB10BD2DE9F041BE
:102430000546016880682B69EC6918436B690027C1
:1024400023431843924A0B68924C234003430B608A
:1024500028684168EB6821F44051194341602968BC
:10246000A869914201D02B6A18438B6823F430632A
:1024700003438B60884B2968884899420DD1D0F876
:10248000880010F0030006D0012868D0022864D02C
:10249000032851D165E001244FE0814B99420BD1D3
:1024A000D0F8880010F00C0055D0042857D0082828
:1024B00053D00C2840D154E07A4B99420BD1D0F83C
:1024C000880010F0300046D0102848D0202844D092
:1024D000302831D145E0744B99420BD1D0F88800B7
:1024E00010F0C00037D0402839D0802835D0C0281F
:1024F00022D136E06D4B99420ED1D0F8880010F40D
:10250000407028D0B0F5807F29D0B0F5007F24D06E
:10251000B0F5407F10D124E091420DD1D0F8880071
:1025200010F4406017D0B0F5806F18D0B0F5006F90
:1025300013D0B0F5406F14D010245D4B00264FF43B
:102540000040914245D174B1022C0FD0042C0FD021
:10255000082C18D10FE00024EFE70224EDE7042453
:10256000EBE70824E9E7FEF727FE03E0184602E060
:10257000FEF746FEA8B36A6802EB4201814202D828
:10258000B0EB023F01D901276FE0DFF828815CB191
:10259000022C0CD0042C13D0082CF4D150082105A7
:1025A000401846F1000105E0FEF706FE0AE050087B
:1025B0004149F5E70023FDF703FEA0F5407150E027
:1025C000FEF71EFE6A68010E0302500818187141DA
:1025D000F0E7E9694FF6EF7881422FD1092CD2D28A
:1025E00000E042E0DFE804F00609200523050505C8
:1025F0002600C8E7FEF7E0FD01E0FEF7EFFD410031
:10260000D5F8040001EB5001B1FBF0F080B2A0F16D
:1026100010014145B7D84FF6F0710140C0F34200B8
:1026200001432868C16020E024496868EAE7FEF7B2
:10263000E7FDE4E74FF480316868E3E7092CA2D2B4
:10264000DFE804F0060918051E05050520009AE7D5
:10265000FEF7B2FD16E0FEF7C1FD13E080B2A0F177
:10266000100141458FD82968C8602E6638466E66CD
:10267000BDE8F081686803EB5001B1FBF0F0EDE7D5
:10268000FEF7BEFD696800EB5100B0FBF1F0E5E735
:1026900000800040F369FFEF003801400010024065
:1026A0000044004000480040004C00400050004002
:1026B0000024F400FFFC0F00000024F40048E801AF
:1026C0002DE9F0479A4617460E4604464FF000099A
:1026D0004FF02008089D39E0681C37D0FEF72CFA2F
:1026E000A0EB0A00A84222D80DB320680168490770
:1026F0002CD5C069C043000528D421684FF4006080
:1027000008622068016821F4D07101602068816846
:1027100021F001018160C4F87480C4F87880C4F8A5
:102720007C8000BF84F870900320BDE8F0872068AB
:10273000016821F4D07101602068816821F00101F5
:102740008160C4F87480C4F87880EBE72068C069C1
:1027500036EA000004D00020B842BDD00020E4E7F3
:102760000120F9E705480068C069C043C006034876
:1027700001D4FFF747BDFFF73FB800003800002045
:10278000FEE700000FB4054B10B503A9044A0298F8
:1027900000F058FF10BC5DF814FB00001D38000865
:1027A0001000002003B401984100009850EAC120B5
:1027B00018BF04204A0D18BF40F0010040F2FF721C
:1027C000B2EB515F08BF40F00200012808BF0520AE
:1027D00002B070470907090E002804DB00F1E02071
:1027E00080F80014704700F00F0000F1E02080F83E
:1027F000141D7047000000002DE9F04D2DED040B75
:102800002DED0E8B96B0DDE92550279CDDF890A0CC
:1028100025F0004624F00048BAF1000F14BF012152
:10282000002101EB4502FC4953184A1093422AD378
:10283000002814BF0123002303EB44030B44F74992
:102840008B4220D358EA00019FEDF59B76D0DFF84C
:10285000D8B35D4503D1BAF1000F05D188E0BAF1D4
:10286000000F08BF002100D0012101EB450111F547
:10287000001F08D8002814BF0121002101EB4401EA
:1028800011F5001F0BD99DED261B9DED240B16B0F5
:1028900000F0DABD04B0BDE8F04D00F081BE0027C5
:1028A000002DBCBFE149884521DAE1498845A8BF30
:1028B00002271CDAC3451ADCDE4901EB2851142932
:1028C00008DDC1F1340220FA02F101FA02F282427B
:1028D0000DD108E058B9C1F1140228FA02F101FA49
:1028E00002F2424503D101F00101C1F1020756EAAB
:1028F0000A0124D1002C22DA002D18BF022F01D0AA
:10290000012F0AD0022000F097FE16B000F0A2BD01
:1029100004B0BDE8F04D00F02BBE022000F08CFEAC
:1029200000F026FE51EC100B81F0004141EC100B41
:1029300016B000F095BD04B0BDE8F08D18E09FED35
:10294000BEAB9FEDBF8B002871D1B848804522D126
:1029500005F1804010F5801008BFBAF1000F07D0D4
:10296000B3450ADC002CA8BF9DED260BE0DA0DE094
:10297000B0EE490AF0EE690ADAE7002C06DA9DEDBE
:10298000260B51EC100B81F000416FE0AE4878440B
:1029900090ED000BCCE7D8454DD1002C48DA2EB194
:1029A00086423AD1BAF1000F42D126E0BAF1000FC7
:1029B00013D0022000F040FE00F00EFE8DED020B61
:1029C0009DED240B8DED000B10EE900A039961F341
:1029D0001E0003909DED020BAAE78DED02AB9DED6D
:1029E000240B1AEE901A10EE900A8DED000B61F395
:1029F0001E0003909DED020B9AE78DED028B9DED7D
:102A0000240B18EE901A10EE900A8DED000B61F376
:102A10001E0003909DED020B8AE709DA9DED240B61
:102A200051EC190B53EC102BFDF70FFE1EE020E0CC
:102A30009DED240B7CE786421BDAB4F1804F0DD06C
:102A4000A4F10050B0F1FF5013D1002D11DB9DED2A
:102A5000240B51EC100B00F005FF07E09DED240B5B
:102A600053EC102B51EC100B00F0C2BC41EC100BDE
:102A70005EE79DED240B51EC100B00F0C2FEBAF1A5
:102A8000000FCDE90E0142D19FED710B46B3A6F1C7
:102A9000E040B0F17F600CD05E4538D1002D00DA07
:102AA000A7B3022F0CBF01204FF0FF30FDF7F2FC5F
:102AB000DCE7002D01DD002C0DDA002D01DD002CFE
:102AC0001FDB002D16DA002C14DB012F08BF9FED51
:102AD000620B3FF42DAFB0EE4A0AF0EE6A0A27E728
:102AE000022F18BF002D0CD0012F0AD1002DFFF6A8
:102AF0001FAF06E0002DB8BF002C08DA012F3FF40D
:102B000017AFB0EE480AF0EE680A11E71BE00120AB
:102B100000EBE57050EA070115D0791EB0EE498A46
:102B2000F0EE698A084308BF9FED4D8B4E480025A3
:102B3000804570DD4D494E48884514DDB0420DDBBF
:102B4000002C19DB2FE0012000F076FD16B000F01C
:102B50008DBC04B0BDE8F04D00F02EBDB34502DCE5
:102B6000002C09DC1FE0864202DA002C1BDA03E0AD
:102B70005E452BDD002C16DD022000F05DFD00F02F
:102B80002BFD8DED020B53EC1A2B51EC180BFDF7BE
:102B90000CFCCDE900010399019861F31E0003903C
:102BA0009DED020BC4E6022000F046FD00F024FD7E
:102BB00010EE901A18EE900A8DED020B8DED008B41
:102BC00061F31E0003909DED020BB1E69DED0E0B2F
:102BD00053EC192B51EC100BFDF7D9FB9FED260B95
:102BE000CDE9080153EC102B9DED080B51EC100BB7
:102BF000FDF7DBFB9FED221B53EC112BFDF7CAFB0E
:102C00009DED081B53EC112BFDF7CFFB9FED1E1B19
:102C100053EC112B3CE08CE0FFFF1F00FFFF0F0087
:102C2000000000000000F03F0000F03F0000F07FD7
:102C30000000404301FCFFFF000000000000F07FA7
:102C4000000000000000000016100000000000005E
:102C50000000000000000080000000000000F0FF05
:102C6000000000000000F0BF0000E0410000F04361
:102C7000FFFFEF3F00000000000000000000D03F19
:102C8000555555555555D53F000000000000E03F13
:102C9000FDF780FB9DED080B41EC1A0B53EC102B5C
:102CA00051EC100BFDF781FB53EC1A2BFDF77DFB6C
:102CB00041EC1A0B9FEDFE0B53EC102B9DED080B16
:102CC00051EC100BFDF771FB41EC1B0B9FEDFA0B68
:102CD00051EC1A0B53EC102BFDF767FB41EC1A0B70
:102CE0009FEDF70B53EC102B9DED080B51EC100BE7
:102CF000FDF75BFB53EC1A2BFDF749FB41EC1A0B7C
:102D000051EC1B0B53EC1A2BFDF7A0FA0690CDE902
:102D100006519DED060B53EC1B2B51EC100BFDF7F0
:102D200036FB53EC1A2BFDF735FB41EC100B00F092
:102D3000A1B90020B6F5801F0EDA9FEDE30B53EC2E
:102D4000102B9DED0E0B51EC100BFDF72EFBCDE97A
:102D50000E016FF034000E4600EB2650A0F2FF3754
:102D6000C6F31300DA4940F07F6646F040568842C9
:102D7000D8BF002408DDD7498142C8BF012403DC45
:102D80000024A6F580167F1CD348784400EBC400CD
:102D90000F9690ED00CB9DED0E0B53EC1C2B51ECE0
:102DA000100BFDF7F4FA9DED0E0B41EC1B0B53ECF1
:102DB0001C2B51EC100BFDF749FA41EC100B51ECB8
:102DC000190B53EC102BFDF740FC41EC1D0B51ECA3
:102DD0001B0B53EC1D2BFDF7E8FA41EC1A0BBF4817
:102DE0008DED10AB7844109590ED000B4FF0005036
:102DF00040EA660000EB84408DED080B00F50020F2
:102E000009909DED080B53EC1C2B51EC100BFDF7BA
:102E1000BEFA9DED0E1B53EC112BFDF7BBFA41ECF6
:102E2000100B53EC102B9DED100B51EC100BFDF71C
:102E3000BCFA9DED080B41EC1C0B53EC102B9DEDE7
:102E4000100B51EC100BFDF7B0FA53EC1B2BFDF7F8
:102E5000A1FA53EC1C2BFDF79AFA53EC1D2BFDF74E
:102E6000A4FA41EC1C0B53EC1A2B51EC1A0BFDF796
:102E70009CFA41EC1B0B9A480621B0EE4B0AF0EE8F
:102E80006B0A784400F0F8FAB0EE401AF0EE601ADF
:102E9000B0EE41DAF0EE61DA53EC1B2B51EC1B0B78
:102EA000FDF783FA53EC1D2BFDF77FFA9DED100B18
:102EB00041EC1B0B53EC1A2B51EC100BFDF7C6F930
:102EC00053EC1C2BFDF771FA53EC1B2BFDF7BEF9ED
:102ED0009DED100B41EC1B0B53EC102B51EC100B28
:102EE000FDF763FA41EC1D0B9FED7FEB53EC1E2BBE
:102EF000FDF7ACF953EC1B2BFDF7A8F90890CDE9D1
:102F000008519DED080B53EC1E2B51EC100BFDF7F7
:102F10003EFA53EC1D2BFDF73AFA53EC1B2BFDF751
:102F200039FA9DED080B41EC1D0B53EC102B9DED78
:102F3000100B51EC100BFDF738FA41EC1B0B53EC66
:102F40001A2B51EC1D0BFDF730FA9DED080B41ECEF
:102F50001A0B53EC102B51EC1C0BFDF726FA53EC1B
:102F60001A2BFDF773F941EC1A0B51EC1B0B53ECC8
:102F70001A2BFDF76BF90C90CDE90C519DED0C0B64
:102F800053EC1B2B51EC100BFDF701FA53EC1A2BF1
:102F9000FDF700FA41EC1B0B9FED550B53EC102B8A
:102FA0009DED0C0B51EC100BFDF7FFF941EC1A0BEA
:102FB0009FED510B51EC1B0B53EC102BFDF7F5F96A
:102FC00041EC1B0B9FED4E0B53EC102B9DED0C0BAE
:102FD00051EC100BFDF7E9F953EC1B2BFDF736F91B
:102FE00041EC100B4848784400EBC40090ED001B06
:102FF00051EC100B53EC112BFDF728F941EC1B0B96
:103000003846FDF747FACDE9080153EC1B2B51EC8C
:103010001A0BFDF71BF941EC100B3C48784400EB10
:10302000C40090ED00CB51EC100B53EC1C2BFDF7C2
:103030000DF99DED081B53EC112BFDF707F90690D8
:10304000CDE906519DED080B53EC102B9DED060BC1
:1030500051EC100BFDF79BF953EC1C2BFDF797F986
:1030600053EC1A2BFDF793F953EC1B2BFDF792F958
:1030700041EC100B9DED261B53EC102B8DED001B2E
:1030800000959DED260B51EC100BFDF78EF99DED93
:10309000000B41EC1A0B53EC102B9DED260B51EC61
:1030A000100BFDF774F99DED061B53EC112B2FE06F
:1030B000000000604715F73FFE822B654715F73F7C
:1030C00044DF5DF80BAE543E0000000000004043BA
:1030D0008E9803007AB60B00920B0000C00B000024
:1030E000CA0A0000000000000000000000000840C4
:1030F000000000E009C7EE3FFD033ADC09C7EE3FE0
:10310000F5015B14E02F3EBE5609000010090000D7
:10311000FDF74BF953EC1A2BFDF798F89DED060BD4
:1031200041EC1A0B53EC102B9DED000B51EC100BE6
:10313000FDF73BF9CDE90C019DED0C0B51EC1A0BA1
:1031400053EC102BFDF782F8CDE902010C46AA4999
:103150008C422FDB611A084318D19DED0C0B53EC08
:10316000102B9DED020B51EC100BFDF710F941EC0B
:103170001B0B9FEDA30B51EC1A0B53EC102BFDF71F
:1031800065F853EC1B2BFDF7E7FA2DD2022000F077
:1031900053FA00F021FA10EE901A18EE900A8DED15
:1031A000020B8DED008B61F31E0003909DED020B71
:1031B000FFF7BEBB944A24F00041914214D39349D7
:1031C000214408437FF4EFAC9DED0C0B53EC102B26
:1031D0009DED020B51EC100BFDF7D9F853EC1A2BB7
:1031E000FDF7BAFA7FF6DFAC24F000408849894A3F
:1031F000002601EB205182422BDA481C4FF480114B
:1032000021FA00F02044844AC0F30A517A44A1F222
:10321000FF3192ED000B814A8DED080BCA4020EA88
:103220000202C0F3130040F48010C1F1140120FA2F
:1032300001F60992002CB8BF76429DED080B53ECC5
:10324000102B9DED0C0B51EC100BFDF7A0F8CDE908
:103250000C019DED0C0B51EC1A0B53EC102BFCF7F1
:10326000F5FF9FED6F0B0890CDE9085153EC102B43
:103270009DED080B51EC100BFDF797F841EC1B0B83
:103280009FED690B53EC102B9DED080B51EC100BCF
:10329000FDF78BF89DED0C0B41EC1C0B53EC102B48
:1032A0009DED080B51EC100BFDF771F853EC1A2B48
:1032B000FDF770F89FED5E1B53EC112BFDF775F8D1
:1032C00053EC1C2BFCF7C2FF41EC1A0B51EC1B0B0F
:1032D00053EC1A2BFCF7BAFFCDE902019DED020B6E
:1032E00053EC1B2B51EC100BFDF751F853EC1A2B40
:1032F000FDF750F89DED020B41EC1A0B53EC102B2F
:1033000051EC100BFDF751F8CDE908014A489DED4D
:10331000080B0521784400F0AFF89DED081B51EC37
:10332000100B53EC112BFDF740F89DED021B53ECF5
:10333000112BFDF72FF8CDE906019DED020B53ECA3
:103340001A2B51EC100BFDF730F853EC1A2BFCF74D
:103350007DFF9FED3B0B41EC1A0B53EC102B9DEDC9
:10336000060B51EC100BFDF712F89DED060B41EC2E
:103370001B0B53EC102B9DED020B51EC100BFDF7CA
:1033800014F853EC1B2BFDF760F953EC1A2BFCF7E8
:10339000FEFF9DED021B53EC112BFCF7F8FF53ECE5
:1033A000192BFCF7F7FFCDE9020101EB06500115DF
:1033B0000029C8BF039015DC9DED020B324651EC8D
:1033C000100BFDF7B1F9FFF7EDF9042808BF00F085
:1033D00013F932469DED020B51EC100BFDF7A4F9E9
:1033E000CDE902019DED020B51EC180B53EC102BB3
:1033F000FCF7DBFFFFF73ABB000090400000000045
:10340000FE822B654715973C00CC904000346F3FFF
:1034100001FCFFFF0000E03F98070000FFFF0F00E6
:1034200000000000432EE63F396CA80C615C20BE12
:10343000EF39FAFE422EE63F680600000000000069
:103440000000000000000040BDEC088BBDEC06CB86
:10345000FFF720BABDEC088BBDEC06CBFFF758BADE
:10346000BDEC088BBDEC06CBFFF765BABDEC088B55
:10347000BDEC06CBFFF76DBB70B504462DED028B9E
:103480004D1E00EBC500B0EE408AF0EE608A90ED74
:10349000000B35F0060017D053EC182B51EC100B35
:1034A000FCF783FF41EC100B6D1E04EBC50090EDA3
:1034B000001B51EC100B53EC112BFCF7C7FE41EC39
:1034C000100B35F00600E7D1022D36D0042D1CD0AC
:1034D000062D1CBFBDEC028B70BD53EC182B51ECBC
:1034E000100BFCF762FF94ED0A1B53EC112BFCF759
:1034F000ADFE53EC182BFCF758FF94ED081B53EC72
:10350000112BFCF7A3FE41EC100B53EC182B51ECE4
:10351000100BFCF74AFF94ED061B53EC112BFCF744
:1035200095FE53EC182BFCF740FF94ED040B53EC85
:10353000102BFCF78BFE41EC100B53EC182B51ECCD
:10354000100BFCF732FF94ED021B53EC112BFCF730
:103550007DFE53EC182BFCF728FF94ED001B53EC79
:10356000112BFCF773FEBDEC028B41EC100B70BD10
:103570009FED070B10B553EC102B9FED070B51EC93
:10358000100BFDF762F841EC100B10BD00000000BD
:103590000000000000000000000000000000F03FFC
:1035A00010B553EC112B51EC100BFCF74FFE41EC16
:1035B000100B10BD000000009FED050B10B553EC83
:1035C000102B51EC100BFDF740F841EC100B10BD27
:1035D00000000000000000009FED050B10B553EC4B
:1035E000102B51EC100BFCF7E0FE41EC100B10BD62
:1035F00000000000000000709FED050B10B553ECBB
:10360000102B51EC100BFCF7D0FE41EC100B10BD51
:10361000000000000000001002E008C8121F08C1EE
:10362000002AFAD170477047002001E001C1121F43
:10363000002AFBD170470000014908607047000074
:10364000140000202DE9FF4F8BB09A460F46054627
:10365000002606E025280BD052460D9990476D1C98
:10366000761C28780028F5D10FB0304600F0C6B897
:103670000024A0460122604900E0044315F8013F00
:10368000203B02FA03F00842F7D128782E2817D100
:1036900015F8010F44F004042A280ED06FF02F0211
:1036A0002878A0F1300109290AD808EB880102EB3B
:1036B000410100EB01086D1CF2E757F8048B6D1C0B
:1036C000287869283ED006DC0028CDD063280BD0AE
:1036D000642804D136E0732810D075284BD05246A8
:1036E0000D999047761C85E017F8040B8DF80000C3
:1036F00000208DF80100E946012003E057F8049B03
:103700004FF0FF3061074FF0000401D40AE0641C61
:1037100044450DDA8442FADB19F804100029F6D189
:1037200006E0641C8442FCDB19F804100029F8D17F
:10373000264404E019F8010B52460D999047641E87
:10374000F8D257E001CF4FF00A0B002802DA4042CE
:103750002D2102E0210504D52B218DF82410012113
:1037600003E0E10705D02021F7E70DF120090891DA
:103770000CE00021F9E701CF4FF00A0BF9E75946B9
:10378000FCF7BFFE01F1300209F8012D0028F6D147
:10379000ADEB090000F1200B600701D44FF00108E8
:1037A000D84502DDA8EB0B0000E000208046002495
:1037B00006E009A85246005D0D999047641C761CEE
:1037C00008988442F5DB04E0302052460D9990477A
:1037D000761CB8F10001A8F10108F5DC05E019F844
:1037E000010B52460D999047761CBBF10001ABF1DD
:1037F000010BF4DC6D1C34E70928010030BCBDE886
:10380000C08F82B0CDE9000121F0004001909DED14
:10381000000B02B051EC100B7047000013B564238D
:10382000012269460248FEF78FF900201CBD000006
:1038300038000020FDF78EF9FEF7DFFBFEF7E2F916
:10384000FEF72CFAFEF74CFA142204490448FEF75E
:103850000FF96420FDF726F8FBE7000018000020B0
:103860003800002000B52DED048B83B041EC190B1E
:10387000FCF79CFF41EC180B18EE100A18EE901A9A
:103880008DED008B002818BF0120084320F0004078
:10389000C0F17F6000F1E040C00F14D019EE101AA3
:1038A00019EE900A8DED009B002918BF01210843F5
:1038B00020F00040C0F17F6000F1E040C00F04BF85
:1038C0000120FFF7B9FE51EC180B03B0BDEC048BDF
:1038D00000BD000000000000000000000102030421
:1038E00006070809A0860100400D0300801A0600A3
:1038F00000350C0040420F0080841E0000093D008E
:1039000000127A000024F40000366E010048E8013D
:10391000006CDC0200000000010203040000000053
:10392000000000000000F03F000000000000F83F31
:1039300000000000000000000000004003B8E23F6B
:10394000000000000000000006D0CF43EBFD4C3E1D
:10395000033333333333E33FFFAB6FDBB66DDB3F12
:103960004D268F515555D53F01411DA96074D13F5A
:1039700065DBC9934A86CD3FEF4E454A287ECA3F54
:103980003E5555555555C53F93BDBE166CC166BFD6
:103990002CDE25AF6A56113FF16BD2C541BDBBBECF
:1039A000D0A4BE726937663E00000000000000002F
:1039B000D039000800000020180000001836000868
:1039C000E83900081800002020050000283600080B
:1039D00010000000010000000000000000093D0090
:0839E0000000000000000000DF
:040000050800018965
:00000001FF
